{
  "contractName": "Miner",
  "abi": [
    {
      "inputs": [
        {
          "internalType": "bytes32",
          "name": "_rewardSwap",
          "type": "bytes32"
        },
        {
          "internalType": "bytes32",
          "name": "_governance",
          "type": "bytes32"
        },
        {
          "internalType": "bytes32",
          "name": "_tornadoTrees",
          "type": "bytes32"
        },
        {
          "internalType": "bytes32[3]",
          "name": "_verifiers",
          "type": "bytes32[3]"
        },
        {
          "internalType": "bytes32",
          "name": "_accountRoot",
          "type": "bytes32"
        },
        {
          "components": [
            {
              "internalType": "address",
              "name": "instance",
              "type": "address"
            },
            {
              "internalType": "uint256",
              "name": "value",
              "type": "uint256"
            }
          ],
          "internalType": "struct Miner.Rate[]",
          "name": "_rates",
          "type": "tuple[]"
        }
      ],
      "stateMutability": "nonpayable",
      "type": "constructor"
    },
    {
      "anonymous": false,
      "inputs": [
        {
          "indexed": false,
          "internalType": "bytes32",
          "name": "commitment",
          "type": "bytes32"
        },
        {
          "indexed": false,
          "internalType": "bytes32",
          "name": "nullifier",
          "type": "bytes32"
        },
        {
          "indexed": false,
          "internalType": "bytes",
          "name": "encryptedAccount",
          "type": "bytes"
        },
        {
          "indexed": false,
          "internalType": "uint256",
          "name": "index",
          "type": "uint256"
        }
      ],
      "name": "NewAccount",
      "type": "event"
    },
    {
      "anonymous": false,
      "inputs": [
        {
          "indexed": false,
          "internalType": "address",
          "name": "instance",
          "type": "address"
        },
        {
          "indexed": false,
          "internalType": "uint256",
          "name": "value",
          "type": "uint256"
        }
      ],
      "name": "RateChanged",
      "type": "event"
    },
    {
      "anonymous": false,
      "inputs": [
        {
          "indexed": false,
          "internalType": "address",
          "name": "reward",
          "type": "address"
        },
        {
          "indexed": false,
          "internalType": "address",
          "name": "withdraw",
          "type": "address"
        },
        {
          "indexed": false,
          "internalType": "address",
          "name": "treeUpdate",
          "type": "address"
        }
      ],
      "name": "VerifiersUpdated",
      "type": "event"
    },
    {
      "inputs": [],
      "name": "ACCOUNT_ROOT_HISTORY_SIZE",
      "outputs": [
        {
          "internalType": "uint256",
          "name": "",
          "type": "uint256"
        }
      ],
      "stateMutability": "view",
      "type": "function"
    },
    {
      "inputs": [],
      "name": "accountCount",
      "outputs": [
        {
          "internalType": "uint256",
          "name": "",
          "type": "uint256"
        }
      ],
      "stateMutability": "view",
      "type": "function"
    },
    {
      "inputs": [
        {
          "internalType": "bytes32",
          "name": "",
          "type": "bytes32"
        }
      ],
      "name": "accountNullifiers",
      "outputs": [
        {
          "internalType": "bool",
          "name": "",
          "type": "bool"
        }
      ],
      "stateMutability": "view",
      "type": "function"
    },
    {
      "inputs": [
        {
          "internalType": "uint256",
          "name": "",
          "type": "uint256"
        }
      ],
      "name": "accountRoots",
      "outputs": [
        {
          "internalType": "bytes32",
          "name": "",
          "type": "bytes32"
        }
      ],
      "stateMutability": "view",
      "type": "function"
    },
    {
      "inputs": [],
      "name": "governance",
      "outputs": [
        {
          "internalType": "address",
          "name": "",
          "type": "address"
        }
      ],
      "stateMutability": "view",
      "type": "function"
    },
    {
      "inputs": [
        {
          "internalType": "address",
          "name": "",
          "type": "address"
        }
      ],
      "name": "rates",
      "outputs": [
        {
          "internalType": "uint256",
          "name": "",
          "type": "uint256"
        }
      ],
      "stateMutability": "view",
      "type": "function"
    },
    {
      "inputs": [
        {
          "internalType": "bytes32",
          "name": "name",
          "type": "bytes32"
        }
      ],
      "name": "resolve",
      "outputs": [
        {
          "internalType": "address",
          "name": "",
          "type": "address"
        }
      ],
      "stateMutability": "view",
      "type": "function"
    },
    {
      "inputs": [
        {
          "internalType": "bytes32",
          "name": "",
          "type": "bytes32"
        }
      ],
      "name": "rewardNullifiers",
      "outputs": [
        {
          "internalType": "bool",
          "name": "",
          "type": "bool"
        }
      ],
      "stateMutability": "view",
      "type": "function"
    },
    {
      "inputs": [],
      "name": "rewardSwap",
      "outputs": [
        {
          "internalType": "contract IRewardSwap",
          "name": "",
          "type": "address"
        }
      ],
      "stateMutability": "view",
      "type": "function"
    },
    {
      "inputs": [],
      "name": "rewardVerifier",
      "outputs": [
        {
          "internalType": "contract IVerifier",
          "name": "",
          "type": "address"
        }
      ],
      "stateMutability": "view",
      "type": "function"
    },
    {
      "inputs": [],
      "name": "tornadoTrees",
      "outputs": [
        {
          "internalType": "contract TornadoTrees",
          "name": "",
          "type": "address"
        }
      ],
      "stateMutability": "view",
      "type": "function"
    },
    {
      "inputs": [],
      "name": "treeUpdateVerifier",
      "outputs": [
        {
          "internalType": "contract IVerifier",
          "name": "",
          "type": "address"
        }
      ],
      "stateMutability": "view",
      "type": "function"
    },
    {
      "inputs": [],
      "name": "withdrawVerifier",
      "outputs": [
        {
          "internalType": "contract IVerifier",
          "name": "",
          "type": "address"
        }
      ],
      "stateMutability": "view",
      "type": "function"
    },
    {
      "inputs": [
        {
          "internalType": "bytes[]",
          "name": "_rewardArgs",
          "type": "bytes[]"
        }
      ],
      "name": "batchReward",
      "outputs": [],
      "stateMutability": "nonpayable",
      "type": "function"
    },
    {
      "inputs": [
        {
          "internalType": "bytes",
          "name": "_proof",
          "type": "bytes"
        },
        {
          "components": [
            {
              "internalType": "uint256",
              "name": "rate",
              "type": "uint256"
            },
            {
              "internalType": "uint256",
              "name": "fee",
              "type": "uint256"
            },
            {
              "internalType": "address",
              "name": "instance",
              "type": "address"
            },
            {
              "internalType": "bytes32",
              "name": "rewardNullifier",
              "type": "bytes32"
            },
            {
              "internalType": "bytes32",
              "name": "extDataHash",
              "type": "bytes32"
            },
            {
              "internalType": "bytes32",
              "name": "depositRoot",
              "type": "bytes32"
            },
            {
              "internalType": "bytes32",
              "name": "withdrawalRoot",
              "type": "bytes32"
            },
            {
              "components": [
                {
                  "internalType": "address",
                  "name": "relayer",
                  "type": "address"
                },
                {
                  "internalType": "bytes",
                  "name": "encryptedAccount",
                  "type": "bytes"
                }
              ],
              "internalType": "struct Miner.RewardExtData",
              "name": "extData",
              "type": "tuple"
            },
            {
              "components": [
                {
                  "internalType": "bytes32",
                  "name": "inputRoot",
                  "type": "bytes32"
                },
                {
                  "internalType": "bytes32",
                  "name": "inputNullifierHash",
                  "type": "bytes32"
                },
                {
                  "internalType": "bytes32",
                  "name": "outputRoot",
                  "type": "bytes32"
                },
                {
                  "internalType": "uint256",
                  "name": "outputPathIndices",
                  "type": "uint256"
                },
                {
                  "internalType": "bytes32",
                  "name": "outputCommitment",
                  "type": "bytes32"
                }
              ],
              "internalType": "struct Miner.AccountUpdate",
              "name": "account",
              "type": "tuple"
            }
          ],
          "internalType": "struct Miner.RewardArgs",
          "name": "_args",
          "type": "tuple"
        },
        {
          "internalType": "bytes",
          "name": "_treeUpdateProof",
          "type": "bytes"
        },
        {
          "components": [
            {
              "internalType": "bytes32",
              "name": "oldRoot",
              "type": "bytes32"
            },
            {
              "internalType": "bytes32",
              "name": "newRoot",
              "type": "bytes32"
            },
            {
              "internalType": "bytes32",
              "name": "leaf",
              "type": "bytes32"
            },
            {
              "internalType": "uint256",
              "name": "pathIndices",
              "type": "uint256"
            }
          ],
          "internalType": "struct Miner.TreeUpdateArgs",
          "name": "_treeUpdateArgs",
          "type": "tuple"
        }
      ],
      "name": "reward",
      "outputs": [],
      "stateMutability": "nonpayable",
      "type": "function"
    },
    {
      "inputs": [
        {
          "internalType": "bytes",
          "name": "_proof",
          "type": "bytes"
        },
        {
          "components": [
            {
              "internalType": "uint256",
              "name": "rate",
              "type": "uint256"
            },
            {
              "internalType": "uint256",
              "name": "fee",
              "type": "uint256"
            },
            {
              "internalType": "address",
              "name": "instance",
              "type": "address"
            },
            {
              "internalType": "bytes32",
              "name": "rewardNullifier",
              "type": "bytes32"
            },
            {
              "internalType": "bytes32",
              "name": "extDataHash",
              "type": "bytes32"
            },
            {
              "internalType": "bytes32",
              "name": "depositRoot",
              "type": "bytes32"
            },
            {
              "internalType": "bytes32",
              "name": "withdrawalRoot",
              "type": "bytes32"
            },
            {
              "components": [
                {
                  "internalType": "address",
                  "name": "relayer",
                  "type": "address"
                },
                {
                  "internalType": "bytes",
                  "name": "encryptedAccount",
                  "type": "bytes"
                }
              ],
              "internalType": "struct Miner.RewardExtData",
              "name": "extData",
              "type": "tuple"
            },
            {
              "components": [
                {
                  "internalType": "bytes32",
                  "name": "inputRoot",
                  "type": "bytes32"
                },
                {
                  "internalType": "bytes32",
                  "name": "inputNullifierHash",
                  "type": "bytes32"
                },
                {
                  "internalType": "bytes32",
                  "name": "outputRoot",
                  "type": "bytes32"
                },
                {
                  "internalType": "uint256",
                  "name": "outputPathIndices",
                  "type": "uint256"
                },
                {
                  "internalType": "bytes32",
                  "name": "outputCommitment",
                  "type": "bytes32"
                }
              ],
              "internalType": "struct Miner.AccountUpdate",
              "name": "account",
              "type": "tuple"
            }
          ],
          "internalType": "struct Miner.RewardArgs",
          "name": "_args",
          "type": "tuple"
        }
      ],
      "name": "reward",
      "outputs": [],
      "stateMutability": "nonpayable",
      "type": "function"
    },
    {
      "inputs": [
        {
          "internalType": "bytes",
          "name": "_proof",
          "type": "bytes"
        },
        {
          "components": [
            {
              "internalType": "uint256",
              "name": "amount",
              "type": "uint256"
            },
            {
              "internalType": "bytes32",
              "name": "extDataHash",
              "type": "bytes32"
            },
            {
              "components": [
                {
                  "internalType": "uint256",
                  "name": "fee",
                  "type": "uint256"
                },
                {
                  "internalType": "address",
                  "name": "recipient",
                  "type": "address"
                },
                {
                  "internalType": "address",
                  "name": "relayer",
                  "type": "address"
                },
                {
                  "internalType": "bytes",
                  "name": "encryptedAccount",
                  "type": "bytes"
                }
              ],
              "internalType": "struct Miner.WithdrawExtData",
              "name": "extData",
              "type": "tuple"
            },
            {
              "components": [
                {
                  "internalType": "bytes32",
                  "name": "inputRoot",
                  "type": "bytes32"
                },
                {
                  "internalType": "bytes32",
                  "name": "inputNullifierHash",
                  "type": "bytes32"
                },
                {
                  "internalType": "bytes32",
                  "name": "outputRoot",
                  "type": "bytes32"
                },
                {
                  "internalType": "uint256",
                  "name": "outputPathIndices",
                  "type": "uint256"
                },
                {
                  "internalType": "bytes32",
                  "name": "outputCommitment",
                  "type": "bytes32"
                }
              ],
              "internalType": "struct Miner.AccountUpdate",
              "name": "account",
              "type": "tuple"
            }
          ],
          "internalType": "struct Miner.WithdrawArgs",
          "name": "_args",
          "type": "tuple"
        }
      ],
      "name": "withdraw",
      "outputs": [],
      "stateMutability": "nonpayable",
      "type": "function"
    },
    {
      "inputs": [
        {
          "internalType": "bytes",
          "name": "_proof",
          "type": "bytes"
        },
        {
          "components": [
            {
              "internalType": "uint256",
              "name": "amount",
              "type": "uint256"
            },
            {
              "internalType": "bytes32",
              "name": "extDataHash",
              "type": "bytes32"
            },
            {
              "components": [
                {
                  "internalType": "uint256",
                  "name": "fee",
                  "type": "uint256"
                },
                {
                  "internalType": "address",
                  "name": "recipient",
                  "type": "address"
                },
                {
                  "internalType": "address",
                  "name": "relayer",
                  "type": "address"
                },
                {
                  "internalType": "bytes",
                  "name": "encryptedAccount",
                  "type": "bytes"
                }
              ],
              "internalType": "struct Miner.WithdrawExtData",
              "name": "extData",
              "type": "tuple"
            },
            {
              "components": [
                {
                  "internalType": "bytes32",
                  "name": "inputRoot",
                  "type": "bytes32"
                },
                {
                  "internalType": "bytes32",
                  "name": "inputNullifierHash",
                  "type": "bytes32"
                },
                {
                  "internalType": "bytes32",
                  "name": "outputRoot",
                  "type": "bytes32"
                },
                {
                  "internalType": "uint256",
                  "name": "outputPathIndices",
                  "type": "uint256"
                },
                {
                  "internalType": "bytes32",
                  "name": "outputCommitment",
                  "type": "bytes32"
                }
              ],
              "internalType": "struct Miner.AccountUpdate",
              "name": "account",
              "type": "tuple"
            }
          ],
          "internalType": "struct Miner.WithdrawArgs",
          "name": "_args",
          "type": "tuple"
        },
        {
          "internalType": "bytes",
          "name": "_treeUpdateProof",
          "type": "bytes"
        },
        {
          "components": [
            {
              "internalType": "bytes32",
              "name": "oldRoot",
              "type": "bytes32"
            },
            {
              "internalType": "bytes32",
              "name": "newRoot",
              "type": "bytes32"
            },
            {
              "internalType": "bytes32",
              "name": "leaf",
              "type": "bytes32"
            },
            {
              "internalType": "uint256",
              "name": "pathIndices",
              "type": "uint256"
            }
          ],
          "internalType": "struct Miner.TreeUpdateArgs",
          "name": "_treeUpdateArgs",
          "type": "tuple"
        }
      ],
      "name": "withdraw",
      "outputs": [],
      "stateMutability": "nonpayable",
      "type": "function"
    },
    {
      "inputs": [
        {
          "components": [
            {
              "internalType": "address",
              "name": "instance",
              "type": "address"
            },
            {
              "internalType": "uint256",
              "name": "value",
              "type": "uint256"
            }
          ],
          "internalType": "struct Miner.Rate[]",
          "name": "_rates",
          "type": "tuple[]"
        }
      ],
      "name": "setRates",
      "outputs": [],
      "stateMutability": "nonpayable",
      "type": "function"
    },
    {
      "inputs": [
        {
          "internalType": "contract IVerifier[3]",
          "name": "_verifiers",
          "type": "address[3]"
        }
      ],
      "name": "setVerifiers",
      "outputs": [],
      "stateMutability": "nonpayable",
      "type": "function"
    },
    {
      "inputs": [
        {
          "internalType": "contract TornadoTrees",
          "name": "_tornadoTrees",
          "type": "address"
        }
      ],
      "name": "setTornadoTreesContract",
      "outputs": [],
      "stateMutability": "nonpayable",
      "type": "function"
    },
    {
      "inputs": [
        {
          "internalType": "uint256",
          "name": "_newWeight",
          "type": "uint256"
        }
      ],
      "name": "setPoolWeight",
      "outputs": [],
      "stateMutability": "nonpayable",
      "type": "function"
    },
    {
      "inputs": [
        {
          "internalType": "bytes32",
          "name": "_root",
          "type": "bytes32"
        },
        {
          "internalType": "uint256",
          "name": "_index",
          "type": "uint256"
        }
      ],
      "name": "isKnownAccountRoot",
      "outputs": [
        {
          "internalType": "bool",
          "name": "",
          "type": "bool"
        }
      ],
      "stateMutability": "view",
      "type": "function"
    },
    {
      "inputs": [],
      "name": "getLastAccountRoot",
      "outputs": [
        {
          "internalType": "bytes32",
          "name": "",
          "type": "bytes32"
        }
      ],
      "stateMutability": "view",
      "type": "function"
    }
  ],
  "bytecode": "0x60a06040523480156200001157600080fd5b506040516200273c3803806200273c83398101604081905262000034916200052f565b6200003f866200014a565b600380546001600160a01b0319166001600160a01b03929092169190911790556200006a856200014a565b60601b6001600160601b03191660805262000085846200014a565b600480546001600160a01b0319166001600160a01b039290921691909117905581600960000155620000b78162000210565b6200013e6040518060600160405280620000f786600060038110620000ec57634e487b7160e01b600052603260045260246000fd5b60200201516200014a565b6001600160a01b0316815260200162000112866001620000ec565b6001600160a01b031681526020016200012d866002620000ec565b6001600160a01b03169052620003ad565b5050505050506200065f565b6000804661a4ec1462000172577336c976da6a6499cad683064f849afa69cd4dec2e62000188565b73abf8fabbc071f320f222a526a2e1fbe26429344d5b604051635c23bdf560e01b8152600481018590529091506001600160a01b03821690635c23bdf59060240160206040518083038186803b158015620001cc57600080fd5b505afa158015620001e1573d6000803e3d6000fd5b505050506040513d601f19601f820116820180604052508101906200020791906200050b565b9150505b919050565b60005b8151811015620003a957600160801b8282815181106200024357634e487b7160e01b600052603260045260246000fd5b60200260200101516020015110620002925760405162461bcd60e51b815260206004820152600e60248201526d496e636f7272656374207261746560901b604482015260640160405180910390fd5b6000828281518110620002b557634e487b7160e01b600052603260045260246000fd5b6020026020010151600001519050828281518110620002e457634e487b7160e01b600052603260045260246000fd5b60200260200101516020015160076000836001600160a01b03166001600160a01b03168152602001908152602001600020819055507f14eccc240e5ba9a72e0ca955584fe1b0dca7104fce4dcb1296edbba8eea2da04818484815181106200035c57634e487b7160e01b600052603260045260246000fd5b6020026020010151602001516040516200038b9291906001600160a01b03929092168252602082015260400190565b60405180910390a15080620003a08162000621565b91505062000213565b5050565b8051600080546001600160a01b039283166001600160a01b031991821681179092556020808501516001805491861691841682179055604080870151600280549190971694168417909555845193845290830152918101919091527fcdb44c0a599b75813fe4a4593f032c7cfd38aa9e6461ba99a31aba3540b502109060600160405180910390a150565b80516001600160a01b03811681146200020b57600080fd5b600082601f83011262000461578081fd5b815160206001600160401b038211156200047f576200047f62000649565b6200048f818360051b01620005ee565b80838252828201915082860187848660061b8901011115620004af578586fd5b855b85811015620004fe57604080838b031215620004cb578788fd5b620004d681620005ee565b620004e18462000438565b8152838701518782015285529385019390910190600101620004b1565b5090979650505050505050565b6000602082840312156200051d578081fd5b620005288262000438565b9392505050565b600080600080600080610100878903121562000549578182fd5b8651955060208088015195506040880151945088607f8901126200056b578283fd5b620005776060620005ee565b8060608a0160c08b018c8111156200058d578687fd5b865b6003811015620005ae578251855293850193918501916001016200058f565b505160e08c0151929750955090925050506001600160401b03811115620005d3578182fd5b620005e189828a0162000450565b9150509295509295509295565b604051601f8201601f191681016001600160401b038111828210171562000619576200061962000649565b604052919050565b60006000198214156200064257634e487b7160e01b81526011600452602481fd5b5060010190565b634e487b7160e01b600052604160045260246000fd5b60805160601c6120a26200069a600039600081816102190152818161097a01528181610aa401528181610f150152610f7f01526120a26000f3fe608060405234801561001057600080fd5b50600436106101585760003560e01c806380bc50cc116100c3578063c6a4b0531161007c578063c6a4b0531461031b578063e2658c9c1461032e578063e4af29fc14610341578063e53c4cab1461034a578063f9406cf31461035d578063f945a17e1461037057610158565b806380bc50cc1461029c578063864eb164146102af57806397f098d7146102c2578063a8734f0b146102d5578063b710cc7c146102f5578063c2c267751461030857610158565b80635aa6e675116101155780635aa6e675146102145780635c23bdf51461023b578063637c09631461024e57806366e6e60d1461026357806377c55be5146102765780637d9af9141461028957610158565b80631311b6e81461015d57806334239b95146101785780633cb837fd146101ab57806342a660b0146101d65780634a20de58146101f957806352ef8e961461020c575b600080fd5b610165610383565b6040519081526020015b60405180910390f35b61019b610186366004611b32565b60066020526000908152604090205460ff1681565b604051901515815260200161016f565b6004546101be906001600160a01b031681565b6040516001600160a01b03909116815260200161016f565b61019b6101e4366004611b32565b60056020526000908152604090205460ff1681565b6002546101be906001600160a01b031681565b610165606481565b6101be7f000000000000000000000000000000000000000000000000000000000000000081565b6101be610249366004611b32565b6103bb565b61026161025c366004611bcc565b61047b565b005b6003546101be906001600160a01b031681565b610261610284366004611a18565b61096f565b610261610297366004611c62565b6109e8565b6102616102aa366004611b6b565b610a21565b6001546101be906001600160a01b031681565b61019b6102d0366004611b4a565b610a56565b6101656102e3366004611970565b60076020526000908152604090205481565b610261610303366004611a3e565b610a99565b610261610316366004611cb9565b610aea565b610165610329366004611b32565b610ef3565b61026161033c366004611970565b610f0a565b61016560085481565b610261610358366004611b32565b610f74565b6000546101be906001600160a01b031681565b61026161037e3660046119a8565b61101d565b6000600960646008546103969190611fea565b606481106103b457634e487b7160e01b600052603260045260246000fd5b0154905090565b6000804661a4ec146103e1577336c976da6a6499cad683064f849afa69cd4dec2e6103f7565b73abf8fabbc071f320f222a526a2e1fbe26429344d5b604051635c23bdf560e01b8152600481018590529091506001600160a01b03821690635c23bdf59060240160206040518083038186803b15801561043a57600080fd5b505afa15801561044e573d6000803e3d6000fd5b505050506040513d601f19601f82011682018060405250810190610472919061198c565b9150505b919050565b61048b8361010001518383611092565b6004805460a085015160c086015160405163c11b968160e01b81529384019190915260248301526001600160a01b03169063c11b96819060440160006040518083038186803b1580156104dd57600080fd5b505afa1580156104f1573d6000803e3d6000fd5b505050506105308360e0015160405160200161050d9190611ebf565b60405160208183030381529060405280516020909101206001600160f81b031690565b8360800151146105875760405162461bcd60e51b815260206004820152601c60248201527f496e636f72726563742065787465726e616c206461746120686173680000000060448201526064015b60405180910390fd5b600160f81b8360200151106105d75760405162461bcd60e51b81526020600482015260166024820152754665652076616c7565206f7574206f662072616e676560501b604482015260640161057e565b6040808401516001600160a01b031660009081526007602052205483511480156106015750825115155b6106435760405162461bcd60e51b8152602060048201526013602482015272496e76616c696420726577617264207261746560681b604482015260640161057e565b606083015160009081526006602052604090205460ff16156106a75760405162461bcd60e51b815260206004820152601d60248201527f52657761726420686173206265656e20616c7265616479207370656e74000000604482015260640161057e565b60005460408051610180810182528551815260208087015181830152868301516001600160a01b0390811683850152606080890151818501526080808a0151818601526101008a810180515160a08089019190915281519096015160c080890191909152815189015160e0890152815190940151918701919091525101516101208501529188015161014084015290870151610160830152915163393ba7b960e11b815291909216916372774f7291610764918891600401611da5565b60206040518083038186803b15801561077c57600080fd5b505afa158015610790573d6000803e3d6000fd5b505050506040513d601f19601f820116820180604052508101906107b49190611b12565b6107f75760405162461bcd60e51b815260206004820152601460248201527324b73b30b634b2103932bbb0b93210383937b7b360611b604482015260640161057e565b61010083015160209081015160009081526005825260408082208054600160ff19918216811790925560608801518452600690945291208054909216179055610867610841610383565b6101008501515114610857578160200151610862565b836101000151604001515b6111bd565b6020830151156109045760035460e084015151602085015160405163d004f0f760e01b81526001600160a01b039283166004820152602481019190915291169063d004f0f790604401602060405180830381600087803b1580156108ca57600080fd5b505af11580156108de573d6000803e3d6000fd5b505050506040513d601f19601f820116820180604052508101906109029190611d12565b505b7fbd4a5ca11c6f082fd6d00dc9d1dced6ab22490039bc36154bfa748bf2bf7435583610100015160800151846101000151602001518560e001516020015160016008546109519190611fb8565b6040516109619493929190611d75565b60405180910390a150505050565b336001600160a01b037f000000000000000000000000000000000000000000000000000000000000000016146109b75760405162461bcd60e51b815260040161057e90611e78565b6040805160608181019092526109e59183906003908390839080828437600092019190915250611203915050565b50565b60408051600080825260a08201835260208201818152928201819052606082018190526080820152610a1d9184918491610aea565b5050565b60408051600080825260a08201835260208201818152928201819052606082018190526080820152610a1d918491849161047b565b60008215801590610a925750826009610a70606485611fea565b60648110610a8e57634e487b7160e01b600052603260045260246000fd5b0154145b9392505050565b336001600160a01b037f00000000000000000000000000000000000000000000000000000000000000001614610ae15760405162461bcd60e51b815260040161057e90611e78565b6109e58161128e565b610af983606001518383611092565b610b11836040015160405160200161050d9190611ef4565b836020015114610b635760405162461bcd60e51b815260206004820152601c60248201527f496e636f72726563742065787465726e616c2064617461206861736800000000604482015260640161057e565b8251600160f81b11610bb75760405162461bcd60e51b815260206004820152601960248201527f416d6f756e742076616c7565206f7574206f662072616e676500000000000000604482015260640161057e565b6001546040805160e081018252855181526020808701518183015260608088018051518486015280519092015181840152815184015160808085019190915282519091015160a08401529051015160c0820152905163598da1d160e01b81526001600160a01b039092169163598da1d191610c3791889190600401611e28565b60206040518083038186803b158015610c4f57600080fd5b505afa158015610c63573d6000803e3d6000fd5b505050506040513d601f19601f82011682018060405250810190610c879190611b12565b610cd35760405162461bcd60e51b815260206004820152601860248201527f496e76616c6964207769746864726177616c2070726f6f660000000000000000604482015260640161057e565b610d01610cde610383565b60608501515114610cf3578160200151610862565b8360600151604001516111bd565b6060808401516020908101516000908152600582526040808220805460ff191660011790558087015151815194850190915260218085529193610d52939192909161204c9083013986519190611419565b90508015610dea5760035460408581015160200151905163d004f0f760e01b81526001600160a01b0391821660048201526024810184905291169063d004f0f790604401602060405180830381600087803b158015610db057600080fd5b505af1158015610dc4573d6000803e3d6000fd5b505050506040513d601f19601f82011682018060405250810190610de89190611d12565b505b60408401515115610e8957600354604085810151808201519051915163d004f0f760e01b81526001600160a01b03918216600482015260248101929092529091169063d004f0f790604401602060405180830381600087803b158015610e4f57600080fd5b505af1158015610e63573d6000803e3d6000fd5b505050506040513d601f19601f82011682018060405250810190610e879190611d12565b505b7fbd4a5ca11c6f082fd6d00dc9d1dced6ab22490039bc36154bfa748bf2bf743558460600151608001518560600151602001518660400151606001516001600854610ed49190611fb8565b604051610ee49493929190611d75565b60405180910390a15050505050565b60098160648110610f0357600080fd5b0154905081565b336001600160a01b037f00000000000000000000000000000000000000000000000000000000000000001614610f525760405162461bcd60e51b815260040161057e90611e78565b600480546001600160a01b0319166001600160a01b0392909216919091179055565b336001600160a01b037f00000000000000000000000000000000000000000000000000000000000000001614610fbc5760405162461bcd60e51b815260040161057e90611e78565b60035460405163e53c4cab60e01b8152600481018390526001600160a01b039091169063e53c4cab90602401600060405180830381600087803b15801561100257600080fd5b505af1158015611016573d6000803e3d6000fd5b5050505050565b60005b8181101561108d5760008084848481811061104b57634e487b7160e01b600052603260045260246000fd5b905060200281019061105d9190611f3b565b81019061106a9190611b6b565b915091506110788282610a21565b5050808061108590611fcf565b915050611020565b505050565b60208084015160009081526005909152604090205460ff16156110f05760405162461bcd60e51b81526020600482015260166024820152754f75746461746564206163636f756e7420737461746560501b604482015260640161057e565b6110f8610383565b8351146111685761111183600001518460600151610a56565b6111545760405162461bcd60e51b8152602060048201526014602482015273125b9d985b1a59081858d8dbdd5b9d081c9bdbdd60621b604482015260640161057e565b61116382828560800151611445565b61108d565b60085483606001511461108d5760405162461bcd60e51b815260206004820152601e60248201527f496e636f7272656374206163636f756e7420696e7365727420696e6465780000604482015260640161057e565b80600960646008600081546111d190611fcf565b91829055506111e09190611fea565b606481106111fe57634e487b7160e01b600052603260045260246000fd5b015550565b8051600080546001600160a01b039283166001600160a01b031991821681179092556020808501516001805491861691841682179055604080870151600280549190971694168417909555845193845290830152918101919091527fcdb44c0a599b75813fe4a4593f032c7cfd38aa9e6461ba99a31aba3540b502109060600160405180910390a150565b60005b8151811015610a1d57600160801b8282815181106112bf57634e487b7160e01b600052603260045260246000fd5b602002602001015160200151106113095760405162461bcd60e51b815260206004820152600e60248201526d496e636f7272656374207261746560901b604482015260640161057e565b600082828151811061132b57634e487b7160e01b600052603260045260246000fd5b602002602001015160000151905082828151811061135957634e487b7160e01b600052603260045260246000fd5b60200260200101516020015160076000836001600160a01b03166001600160a01b03168152602001908152602001600020819055507f14eccc240e5ba9a72e0ca955584fe1b0dca7104fce4dcb1296edbba8eea2da04818484815181106113d057634e487b7160e01b600052603260045260246000fd5b6020026020010151602001516040516113fe9291906001600160a01b03929092168252602082015260400190565b60405180910390a1508061141181611fcf565b915050611291565b6000818484111561143d5760405162461bcd60e51b815260040161057e9190611e65565b505050900390565b60008351116114965760405162461bcd60e51b815260206004820152601c60248201527f4f75746461746564206163636f756e74206d65726b6c6520726f6f7400000000604482015260640161057e565b61149e610383565b8251146114ed5760405162461bcd60e51b815260206004820181905260248201527f4f75746461746564207472656520757064617465206d65726b6c6520726f6f74604482015260640161057e565b808260400151146115405760405162461bcd60e51b815260206004820152601d60248201527f496e636f727265637420636f6d6d69746d656e7420696e736572746564000000604482015260640161057e565b6008548260600151146115955760405162461bcd60e51b815260206004820152601e60248201527f496e636f7272656374206163636f756e7420696e7365727420696e6465780000604482015260640161057e565b60025460408051608081018252845181526020808601519082015284820151818301526060808601519082015290516335f8315960e11b81526001600160a01b0390921691636bf062b2916115ef91879190600401611ded565b60206040518083038186803b15801561160757600080fd5b505afa15801561161b573d6000803e3d6000fd5b505050506040513d601f19601f8201168201806040525081019061163f9190611b12565b61108d5760405162461bcd60e51b815260206004820152601960248201527f496e76616c69642074726565207570646174652070726f6f6600000000000000604482015260640161057e565b803561047681612036565b600082601f8301126116a6578081fd5b813567ffffffffffffffff8111156116c0576116c0612020565b6116d3601f8201601f1916602001611f87565b8181528460208386010111156116e7578283fd5b816020850160208301379081016020019190915292915050565b600060a08284031215611712578081fd5b61171c60a0611f87565b9050813581526020820135602082015260408201356040820152606082013560608201526080820135608082015292915050565b60006101a08284031215611762578081fd5b61176d610120611f87565b905081358152602082013560208201526117896040830161168b565b6040820152606082013560608201526080820135608082015260a082013560a082015260c082013560c082015260e082013567ffffffffffffffff8111156117d057600080fd5b6117dc848285016117fb565b60e0830152506101006117f184828501611701565b9082015292915050565b60006040828403121561180c578081fd5b6118166040611f87565b9050813561182381612036565b8152602082013567ffffffffffffffff81111561183f57600080fd5b61184b84828501611696565b60208301525092915050565b600060808284031215611868578081fd5b6118726080611f87565b90508135815260208201356020820152604082013560408201526060820135606082015292915050565b600061010082840312156118ae578081fd5b6118b86080611f87565b90508135815260208201356020820152604082013567ffffffffffffffff808211156118e357600080fd5b90830190608082860312156118f757600080fd5b6119016080611f87565b82358152602083013561191381612036565b6020820152604083013561192681612036565b604082015260608301358281111561193d57600080fd5b61194987828601611696565b6060830152508060408501525050506119658360608401611701565b606082015292915050565b600060208284031215611981578081fd5b8135610a9281612036565b60006020828403121561199d578081fd5b8151610a9281612036565b600080602083850312156119ba578081fd5b823567ffffffffffffffff808211156119d1578283fd5b818501915085601f8301126119e4578283fd5b8135818111156119f2578384fd5b8660208260051b8501011115611a06578384fd5b60209290920196919550909350505050565b600060608284031215611a29578081fd5b82606083011115611a38578081fd5b50919050565b60006020808385031215611a50578182fd5b823567ffffffffffffffff80821115611a67578384fd5b818501915085601f830112611a7a578384fd5b813581811115611a8c57611a8c612020565b611a9a848260051b01611f87565b8181528481019250838501600683901b85018601891015611ab9578687fd5b8694505b82851015611b0657604080828b031215611ad5578788fd5b611ade81611f87565b8235611ae981612036565b815282880135888201528552600195909501949386019301611abd565b50979650505050505050565b600060208284031215611b23578081fd5b81518015158114610a92578182fd5b600060208284031215611b43578081fd5b5035919050565b60008060408385031215611b5c578182fd5b50508035926020909101359150565b60008060408385031215611b7d578182fd5b823567ffffffffffffffff80821115611b94578384fd5b611ba086838701611696565b93506020850135915080821115611bb5578283fd5b50611bc285828601611750565b9150509250929050565b60008060008060e08587031215611be1578182fd5b843567ffffffffffffffff80821115611bf8578384fd5b611c0488838901611696565b95506020870135915080821115611c19578384fd5b611c2588838901611750565b94506040870135915080821115611c3a578384fd5b50611c4787828801611696565b925050611c578660608701611857565b905092959194509250565b60008060408385031215611c74578182fd5b823567ffffffffffffffff80821115611c8b578384fd5b611c9786838701611696565b93506020850135915080821115611cac578283fd5b50611bc28582860161189c565b60008060008060e08587031215611cce578182fd5b843567ffffffffffffffff80821115611ce5578384fd5b611cf188838901611696565b95506020870135915080821115611d06578384fd5b611c258883890161189c565b600060208284031215611d23578081fd5b5051919050565b60008151808452815b81811015611d4f57602081850181015186830182015201611d33565b81811115611d605782602083870101525b50601f01601f19169290920160200192915050565b600085825284602083015260806040830152611d946080830185611d2a565b905082606083015295945050505050565b60006101a0808352611db981840186611d2a565b91505060208083018460005b600c811015611de257815183529183019190830190600101611dc5565b505050509392505050565b600060a08252611e0060a0830185611d2a565b905060208083018460005b6004811015611de257815183529183019190830190600101611e0b565b6000610100808352611e3c81840186611d2a565b91505060208083018460005b6007811015611de257815183529183019190830190600101611e48565b600060208252610a926020830184611d2a565b60208082526027908201527f4f6e6c7920676f7665726e616e63652063616e20706572666f726d20746869736040820152661030b1ba34b7b760c91b606082015260800190565b602080825282516001600160a01b031682820152820151604080830152600090611eec6060840182611d2a565b949350505050565b60006020825282516020830152602083015160018060a01b03808216604085015280604086015116606085015250506060830151608080840152611eec60a0840182611d2a565b6000808335601e19843603018112611f51578283fd5b83018035915067ffffffffffffffff821115611f6b578283fd5b602001915036819003821315611f8057600080fd5b9250929050565b604051601f8201601f1916810167ffffffffffffffff81118282101715611fb057611fb0612020565b604052919050565b600082821015611fca57611fca61200a565b500390565b6000600019821415611fe357611fe361200a565b5060010190565b60008261200557634e487b7160e01b81526012600452602481fd5b500690565b634e487b7160e01b600052601160045260246000fd5b634e487b7160e01b600052604160045260246000fd5b6001600160a01b03811681146109e557600080fdfe416d6f756e742073686f756c642062652067726561746572207468616e20666565a2646970667358221220f63ad363ff6a444276563de30f3dddfd3c064d6caccb8c667158f8088777f90764736f6c63430008030033",
  "immutableReferences": {
    "286": [
      {
        "length": 32,
        "start": 537
      },
      {
        "length": 32,
        "start": 2426
      },
      {
        "length": 32,
        "start": 2724
      },
      {
        "length": 32,
        "start": 3861
      },
      {
        "length": 32,
        "start": 3967
      }
    ]
  },
  "source": "// SPDX-License-Identifier: MIT\n\npragma solidity ^0.8.0;\n\nimport \"@openzeppelin/contracts/token/ERC20/IERC20.sol\";\nimport \"@openzeppelin/contracts/utils/math/SafeMath.sol\";\nimport \"@poofcash/poof-token/contracts/NomResolve.sol\";\nimport \"./interfaces/IVerifier.sol\";\nimport \"./interfaces/IRewardSwap.sol\";\nimport \"./TornadoTrees.sol\";\n\ncontract Miner is NomResolve {\n  using SafeMath for uint256;\n\n  IVerifier public rewardVerifier;\n  IVerifier public withdrawVerifier;\n  IVerifier public treeUpdateVerifier;\n  IRewardSwap public rewardSwap;\n  address public immutable governance;\n  TornadoTrees public tornadoTrees;\n\n  mapping(bytes32 => bool) public accountNullifiers;\n  mapping(bytes32 => bool) public rewardNullifiers;\n  mapping(address => uint256) public rates;\n\n  uint256 public accountCount;\n  uint256 public constant ACCOUNT_ROOT_HISTORY_SIZE = 100;\n  bytes32[ACCOUNT_ROOT_HISTORY_SIZE] public accountRoots;\n\n  event NewAccount(bytes32 commitment, bytes32 nullifier, bytes encryptedAccount, uint256 index);\n  event RateChanged(address instance, uint256 value);\n  event VerifiersUpdated(address reward, address withdraw, address treeUpdate);\n\n  struct TreeUpdateArgs {\n    bytes32 oldRoot;\n    bytes32 newRoot;\n    bytes32 leaf;\n    uint256 pathIndices;\n  }\n\n  struct AccountUpdate {\n    bytes32 inputRoot;\n    bytes32 inputNullifierHash;\n    bytes32 outputRoot;\n    uint256 outputPathIndices;\n    bytes32 outputCommitment;\n  }\n\n  struct RewardExtData {\n    address relayer;\n    bytes encryptedAccount;\n  }\n\n  struct RewardArgs {\n    uint256 rate;\n    uint256 fee;\n    address instance;\n    bytes32 rewardNullifier;\n    bytes32 extDataHash;\n    bytes32 depositRoot;\n    bytes32 withdrawalRoot;\n    RewardExtData extData;\n    AccountUpdate account;\n  }\n\n  struct WithdrawExtData {\n    uint256 fee;\n    address recipient;\n    address relayer;\n    bytes encryptedAccount;\n  }\n\n  struct WithdrawArgs {\n    uint256 amount;\n    bytes32 extDataHash;\n    WithdrawExtData extData;\n    AccountUpdate account;\n  }\n\n  struct Rate {\n    address instance;\n    uint256 value;\n  }\n\n  modifier onlyGovernance() {\n    require(msg.sender == governance, \"Only governance can perform this action\");\n    _;\n  }\n\n  constructor(\n    bytes32 _rewardSwap,\n    bytes32 _governance,\n    bytes32 _tornadoTrees,\n    bytes32[3] memory _verifiers,\n    bytes32 _accountRoot,\n    Rate[] memory _rates\n  ) {\n    rewardSwap = IRewardSwap(resolve(_rewardSwap));\n    governance = resolve(_governance);\n    tornadoTrees = TornadoTrees(resolve(_tornadoTrees));\n\n    // insert empty tree root without incrementing accountCount counter\n    accountRoots[0] = _accountRoot;\n\n    _setRates(_rates);\n    // prettier-ignore\n    _setVerifiers([\n      IVerifier(resolve(_verifiers[0])),\n      IVerifier(resolve(_verifiers[1])),\n      IVerifier(resolve(_verifiers[2]))\n    ]);\n  }\n\n  function reward(bytes memory _proof, RewardArgs memory _args) public {\n    reward(_proof, _args, new bytes(0), TreeUpdateArgs(0, 0, 0, 0));\n  }\n\n  function batchReward(bytes[] calldata _rewardArgs) external {\n    for (uint256 i = 0; i < _rewardArgs.length; i++) {\n      (bytes memory proof, RewardArgs memory args) = abi.decode(_rewardArgs[i], (bytes, RewardArgs));\n      reward(proof, args);\n    }\n  }\n\n  function reward(\n    bytes memory _proof,\n    RewardArgs memory _args,\n    bytes memory _treeUpdateProof,\n    TreeUpdateArgs memory _treeUpdateArgs\n  ) public {\n    validateAccountUpdate(_args.account, _treeUpdateProof, _treeUpdateArgs);\n    tornadoTrees.validateRoots(_args.depositRoot, _args.withdrawalRoot);\n    require(_args.extDataHash == keccak248(abi.encode(_args.extData)), \"Incorrect external data hash\");\n    require(_args.fee < 2**248, \"Fee value out of range\");\n    require(_args.rate == rates[_args.instance] && _args.rate > 0, \"Invalid reward rate\");\n    require(!rewardNullifiers[_args.rewardNullifier], \"Reward has been already spent\");\n    require(\n      rewardVerifier.verifyProof(\n        _proof,\n        [\n          uint256(_args.rate),\n          uint256(_args.fee),\n          uint256(uint160(_args.instance)),\n          uint256(_args.rewardNullifier),\n          uint256(_args.extDataHash),\n          uint256(_args.account.inputRoot),\n          uint256(_args.account.inputNullifierHash),\n          uint256(_args.account.outputRoot),\n          uint256(_args.account.outputPathIndices),\n          uint256(_args.account.outputCommitment),\n          uint256(_args.depositRoot),\n          uint256(_args.withdrawalRoot)\n        ]\n      ),\n      \"Invalid reward proof\"\n    );\n\n    accountNullifiers[_args.account.inputNullifierHash] = true;\n    rewardNullifiers[_args.rewardNullifier] = true;\n    insertAccountRoot(_args.account.inputRoot == getLastAccountRoot() ? _args.account.outputRoot : _treeUpdateArgs.newRoot);\n    if (_args.fee > 0) {\n      rewardSwap.swap(_args.extData.relayer, _args.fee);\n    }\n\n    emit NewAccount(\n      _args.account.outputCommitment,\n      _args.account.inputNullifierHash,\n      _args.extData.encryptedAccount,\n      accountCount - 1\n    );\n  }\n\n  function withdraw(bytes memory _proof, WithdrawArgs memory _args) public {\n    withdraw(_proof, _args, new bytes(0), TreeUpdateArgs(0, 0, 0, 0));\n  }\n\n  function withdraw(\n    bytes memory _proof,\n    WithdrawArgs memory _args,\n    bytes memory _treeUpdateProof,\n    TreeUpdateArgs memory _treeUpdateArgs\n  ) public {\n    validateAccountUpdate(_args.account, _treeUpdateProof, _treeUpdateArgs);\n    require(_args.extDataHash == keccak248(abi.encode(_args.extData)), \"Incorrect external data hash\");\n    require(_args.amount < 2**248, \"Amount value out of range\");\n    require(\n      withdrawVerifier.verifyProof(\n        _proof,\n        [\n          uint256(_args.amount),\n          uint256(_args.extDataHash),\n          uint256(_args.account.inputRoot),\n          uint256(_args.account.inputNullifierHash),\n          uint256(_args.account.outputRoot),\n          uint256(_args.account.outputPathIndices),\n          uint256(_args.account.outputCommitment)\n        ]\n      ),\n      \"Invalid withdrawal proof\"\n    );\n\n    insertAccountRoot(_args.account.inputRoot == getLastAccountRoot() ? _args.account.outputRoot : _treeUpdateArgs.newRoot);\n    accountNullifiers[_args.account.inputNullifierHash] = true;\n    // allow submitting noop withdrawals (amount == 0)\n    uint256 amount = _args.amount.sub(_args.extData.fee, \"Amount should be greater than fee\");\n    if (amount > 0) {\n      rewardSwap.swap(_args.extData.recipient, amount);\n    }\n    // Note. The relayer swap rate always will be worse than estimated\n    if (_args.extData.fee > 0) {\n      rewardSwap.swap(_args.extData.relayer, _args.extData.fee);\n    }\n\n    emit NewAccount(\n      _args.account.outputCommitment,\n      _args.account.inputNullifierHash,\n      _args.extData.encryptedAccount,\n      accountCount - 1\n    );\n  }\n\n  function setRates(Rate[] memory _rates) external onlyGovernance {\n    _setRates(_rates);\n  }\n\n  function setVerifiers(IVerifier[3] calldata _verifiers) external onlyGovernance {\n    _setVerifiers(_verifiers);\n  }\n\n  function setTornadoTreesContract(TornadoTrees _tornadoTrees) external onlyGovernance {\n    tornadoTrees = _tornadoTrees;\n  }\n\n  function setPoolWeight(uint256 _newWeight) external onlyGovernance {\n    rewardSwap.setPoolWeight(_newWeight);\n  }\n\n  // ------VIEW-------\n\n  /**\n    @dev Whether the root is present in the root history\n    */\n  function isKnownAccountRoot(bytes32 _root, uint256 _index) public view returns (bool) {\n    return _root != 0 && accountRoots[_index % ACCOUNT_ROOT_HISTORY_SIZE] == _root;\n  }\n\n  /**\n    @dev Returns the last root\n    */\n  function getLastAccountRoot() public view returns (bytes32) {\n    return accountRoots[accountCount % ACCOUNT_ROOT_HISTORY_SIZE];\n  }\n\n  // -----INTERNAL-------\n\n  function keccak248(bytes memory _data) internal pure returns (bytes32) {\n    return keccak256(_data) & 0x00ffffffffffffffffffffffffffffffffffffffffffffffffffffffffffffff;\n  }\n\n  function validateTreeUpdate(\n    bytes memory _proof,\n    TreeUpdateArgs memory _args,\n    bytes32 _commitment\n  ) internal view {\n    require(_proof.length > 0, \"Outdated account merkle root\");\n    require(_args.oldRoot == getLastAccountRoot(), \"Outdated tree update merkle root\");\n    require(_args.leaf == _commitment, \"Incorrect commitment inserted\");\n    require(_args.pathIndices == accountCount, \"Incorrect account insert index\");\n    require(\n      treeUpdateVerifier.verifyProof(\n        _proof,\n        [uint256(_args.oldRoot), uint256(_args.newRoot), uint256(_args.leaf), uint256(_args.pathIndices)]\n      ),\n      \"Invalid tree update proof\"\n    );\n  }\n\n  function validateAccountUpdate(\n    AccountUpdate memory _account,\n    bytes memory _treeUpdateProof,\n    TreeUpdateArgs memory _treeUpdateArgs\n  ) internal view {\n    require(!accountNullifiers[_account.inputNullifierHash], \"Outdated account state\");\n    if (_account.inputRoot != getLastAccountRoot()) {\n      // _account.outputPathIndices (= last tree leaf index) is always equal to root index in the history mapping\n      // because we always generate a new root for each new leaf\n      require(isKnownAccountRoot(_account.inputRoot, _account.outputPathIndices), \"Invalid account root\");\n      validateTreeUpdate(_treeUpdateProof, _treeUpdateArgs, _account.outputCommitment);\n    } else {\n      require(_account.outputPathIndices == accountCount, \"Incorrect account insert index\");\n    }\n  }\n\n  function insertAccountRoot(bytes32 _root) internal {\n    accountRoots[++accountCount % ACCOUNT_ROOT_HISTORY_SIZE] = _root;\n  }\n\n  function _setRates(Rate[] memory _rates) internal {\n    for (uint256 i = 0; i < _rates.length; i++) {\n      require(_rates[i].value < 2**128, \"Incorrect rate\");\n      address instance = _rates[i].instance;\n      rates[instance] = _rates[i].value;\n      emit RateChanged(instance, _rates[i].value);\n    }\n  }\n\n  function _setVerifiers(IVerifier[3] memory _verifiers) internal {\n    rewardVerifier = _verifiers[0];\n    withdrawVerifier = _verifiers[1];\n    treeUpdateVerifier = _verifiers[2];\n    emit VerifiersUpdated(address(_verifiers[0]), address(_verifiers[1]), address(_verifiers[2]));\n  }\n}\n",
  "sourcePath": "/private/tmp/poof-deploy/poof-anonymity-mining/contracts/Miner.sol",
  "compiler": {
    "name": "solc",
    "version": "0.8.3+commit.8d00100c.Emscripten.clang"
  },
  "schemaVersion": "3.2.2",
  "updatedAt": "2021-07-20T16:06:10.439Z",
  "devdoc": {
    "kind": "dev",
    "methods": {
      "getLastAccountRoot()": {
        "details": "Returns the last root"
      },
      "isKnownAccountRoot(bytes32,uint256)": {
        "details": "Whether the root is present in the root history"
      }
    },
    "version": 1
  },
  "userdoc": {
    "kind": "user",
    "methods": {},
    "version": 1
  }
}