{
  "contractName": "ReleasePOOF",
  "abi": [
    {
      "inputs": [
        {
          "internalType": "address",
          "name": "owner_",
          "type": "address"
        },
        {
          "internalType": "address",
          "name": "poof_",
          "type": "address"
        },
        {
          "internalType": "uint96",
          "name": "amount_",
          "type": "uint96"
        },
        {
          "internalType": "uint256",
          "name": "startTime_",
          "type": "uint256"
        },
        {
          "internalType": "uint256",
          "name": "cliffEndTime_",
          "type": "uint256"
        },
        {
          "internalType": "uint256",
          "name": "endTime_",
          "type": "uint256"
        }
      ],
      "stateMutability": "nonpayable",
      "type": "constructor"
    },
    {
      "anonymous": false,
      "inputs": [
        {
          "indexed": true,
          "internalType": "address",
          "name": "owner",
          "type": "address"
        },
        {
          "indexed": false,
          "internalType": "uint96",
          "name": "amount",
          "type": "uint96"
        }
      ],
      "name": "Allocated",
      "type": "event"
    },
    {
      "anonymous": false,
      "inputs": [
        {
          "indexed": true,
          "internalType": "address",
          "name": "owner",
          "type": "address"
        },
        {
          "indexed": false,
          "internalType": "uint96",
          "name": "amount",
          "type": "uint96"
        }
      ],
      "name": "Claimed",
      "type": "event"
    },
    {
      "anonymous": false,
      "inputs": [
        {
          "indexed": true,
          "internalType": "address",
          "name": "delegator",
          "type": "address"
        },
        {
          "indexed": true,
          "internalType": "address",
          "name": "fromDelegate",
          "type": "address"
        },
        {
          "indexed": true,
          "internalType": "address",
          "name": "toDelegate",
          "type": "address"
        }
      ],
      "name": "DelegateChanged",
      "type": "event"
    },
    {
      "anonymous": false,
      "inputs": [
        {
          "indexed": true,
          "internalType": "address",
          "name": "delegate",
          "type": "address"
        },
        {
          "indexed": false,
          "internalType": "uint256",
          "name": "previousBalance",
          "type": "uint256"
        },
        {
          "indexed": false,
          "internalType": "uint256",
          "name": "newBalance",
          "type": "uint256"
        }
      ],
      "name": "DelegateVotesChanged",
      "type": "event"
    },
    {
      "anonymous": false,
      "inputs": [
        {
          "indexed": true,
          "internalType": "address",
          "name": "previousOwner",
          "type": "address"
        },
        {
          "indexed": true,
          "internalType": "address",
          "name": "newOwner",
          "type": "address"
        }
      ],
      "name": "OwnershipTransferred",
      "type": "event"
    },
    {
      "anonymous": false,
      "inputs": [
        {
          "indexed": true,
          "internalType": "address",
          "name": "from",
          "type": "address"
        },
        {
          "indexed": true,
          "internalType": "address",
          "name": "to",
          "type": "address"
        },
        {
          "indexed": false,
          "internalType": "uint256",
          "name": "amount",
          "type": "uint256"
        }
      ],
      "name": "Transfer",
      "type": "event"
    },
    {
      "inputs": [],
      "name": "DELEGATION_TYPEHASH",
      "outputs": [
        {
          "internalType": "bytes32",
          "name": "",
          "type": "bytes32"
        }
      ],
      "stateMutability": "view",
      "type": "function"
    },
    {
      "inputs": [],
      "name": "DOMAIN_TYPEHASH",
      "outputs": [
        {
          "internalType": "bytes32",
          "name": "",
          "type": "bytes32"
        }
      ],
      "stateMutability": "view",
      "type": "function"
    },
    {
      "inputs": [
        {
          "internalType": "address[]",
          "name": "_holders",
          "type": "address[]"
        },
        {
          "internalType": "uint96[]",
          "name": "_amounts",
          "type": "uint96[]"
        }
      ],
      "name": "allocate",
      "outputs": [],
      "stateMutability": "nonpayable",
      "type": "function"
    },
    {
      "inputs": [
        {
          "internalType": "address",
          "name": "_account",
          "type": "address"
        }
      ],
      "name": "balanceOf",
      "outputs": [
        {
          "internalType": "uint256",
          "name": "",
          "type": "uint256"
        }
      ],
      "stateMutability": "view",
      "type": "function"
    },
    {
      "inputs": [
        {
          "internalType": "address",
          "name": "",
          "type": "address"
        },
        {
          "internalType": "uint32",
          "name": "",
          "type": "uint32"
        }
      ],
      "name": "checkpoints",
      "outputs": [
        {
          "internalType": "uint32",
          "name": "fromBlock",
          "type": "uint32"
        },
        {
          "internalType": "uint96",
          "name": "votes",
          "type": "uint96"
        }
      ],
      "stateMutability": "view",
      "type": "function"
    },
    {
      "inputs": [],
      "name": "claim",
      "outputs": [],
      "stateMutability": "nonpayable",
      "type": "function"
    },
    {
      "inputs": [],
      "name": "cliffEndTime",
      "outputs": [
        {
          "internalType": "uint256",
          "name": "",
          "type": "uint256"
        }
      ],
      "stateMutability": "view",
      "type": "function"
    },
    {
      "inputs": [],
      "name": "decimals",
      "outputs": [
        {
          "internalType": "uint8",
          "name": "",
          "type": "uint8"
        }
      ],
      "stateMutability": "view",
      "type": "function"
    },
    {
      "inputs": [
        {
          "internalType": "address",
          "name": "delegatee",
          "type": "address"
        }
      ],
      "name": "delegate",
      "outputs": [],
      "stateMutability": "nonpayable",
      "type": "function"
    },
    {
      "inputs": [
        {
          "internalType": "address",
          "name": "delegatee",
          "type": "address"
        },
        {
          "internalType": "uint256",
          "name": "nonce",
          "type": "uint256"
        },
        {
          "internalType": "uint256",
          "name": "expiry",
          "type": "uint256"
        },
        {
          "internalType": "uint8",
          "name": "v",
          "type": "uint8"
        },
        {
          "internalType": "bytes32",
          "name": "r",
          "type": "bytes32"
        },
        {
          "internalType": "bytes32",
          "name": "s",
          "type": "bytes32"
        }
      ],
      "name": "delegateBySig",
      "outputs": [],
      "stateMutability": "nonpayable",
      "type": "function"
    },
    {
      "inputs": [
        {
          "internalType": "address",
          "name": "",
          "type": "address"
        }
      ],
      "name": "delegates",
      "outputs": [
        {
          "internalType": "address",
          "name": "",
          "type": "address"
        }
      ],
      "stateMutability": "view",
      "type": "function"
    },
    {
      "inputs": [
        {
          "internalType": "address",
          "name": "_owner",
          "type": "address"
        }
      ],
      "name": "earned",
      "outputs": [
        {
          "internalType": "uint96",
          "name": "",
          "type": "uint96"
        }
      ],
      "stateMutability": "view",
      "type": "function"
    },
    {
      "inputs": [],
      "name": "endTime",
      "outputs": [
        {
          "internalType": "uint256",
          "name": "",
          "type": "uint256"
        }
      ],
      "stateMutability": "view",
      "type": "function"
    },
    {
      "inputs": [
        {
          "internalType": "address",
          "name": "account",
          "type": "address"
        }
      ],
      "name": "getCurrentVotes",
      "outputs": [
        {
          "internalType": "uint96",
          "name": "",
          "type": "uint96"
        }
      ],
      "stateMutability": "view",
      "type": "function"
    },
    {
      "inputs": [
        {
          "internalType": "address",
          "name": "account",
          "type": "address"
        },
        {
          "internalType": "uint256",
          "name": "blockNumber",
          "type": "uint256"
        }
      ],
      "name": "getPriorVotes",
      "outputs": [
        {
          "internalType": "uint96",
          "name": "",
          "type": "uint96"
        }
      ],
      "stateMutability": "view",
      "type": "function"
    },
    {
      "inputs": [
        {
          "internalType": "address",
          "name": "",
          "type": "address"
        }
      ],
      "name": "lifetimeTotalAllocated",
      "outputs": [
        {
          "internalType": "uint96",
          "name": "",
          "type": "uint96"
        }
      ],
      "stateMutability": "view",
      "type": "function"
    },
    {
      "inputs": [],
      "name": "name",
      "outputs": [
        {
          "internalType": "string",
          "name": "",
          "type": "string"
        }
      ],
      "stateMutability": "view",
      "type": "function"
    },
    {
      "inputs": [
        {
          "internalType": "address",
          "name": "",
          "type": "address"
        }
      ],
      "name": "nonces",
      "outputs": [
        {
          "internalType": "uint256",
          "name": "",
          "type": "uint256"
        }
      ],
      "stateMutability": "view",
      "type": "function"
    },
    {
      "inputs": [
        {
          "internalType": "address",
          "name": "",
          "type": "address"
        }
      ],
      "name": "numCheckpoints",
      "outputs": [
        {
          "internalType": "uint32",
          "name": "",
          "type": "uint32"
        }
      ],
      "stateMutability": "view",
      "type": "function"
    },
    {
      "inputs": [],
      "name": "owner",
      "outputs": [
        {
          "internalType": "address",
          "name": "",
          "type": "address"
        }
      ],
      "stateMutability": "view",
      "type": "function"
    },
    {
      "inputs": [],
      "name": "releasableSupply",
      "outputs": [
        {
          "internalType": "uint96",
          "name": "",
          "type": "uint96"
        }
      ],
      "stateMutability": "view",
      "type": "function"
    },
    {
      "inputs": [
        {
          "internalType": "uint256",
          "name": "_principal",
          "type": "uint256"
        }
      ],
      "name": "releasableSupplyOfPrincipal",
      "outputs": [
        {
          "internalType": "uint96",
          "name": "",
          "type": "uint96"
        }
      ],
      "stateMutability": "view",
      "type": "function"
    },
    {
      "inputs": [],
      "name": "renounceOwnership",
      "outputs": [],
      "stateMutability": "nonpayable",
      "type": "function"
    },
    {
      "inputs": [],
      "name": "startTime",
      "outputs": [
        {
          "internalType": "uint256",
          "name": "",
          "type": "uint256"
        }
      ],
      "stateMutability": "view",
      "type": "function"
    },
    {
      "inputs": [],
      "name": "symbol",
      "outputs": [
        {
          "internalType": "string",
          "name": "",
          "type": "string"
        }
      ],
      "stateMutability": "view",
      "type": "function"
    },
    {
      "inputs": [],
      "name": "token",
      "outputs": [
        {
          "internalType": "contract IERC20",
          "name": "",
          "type": "address"
        }
      ],
      "stateMutability": "view",
      "type": "function"
    },
    {
      "inputs": [
        {
          "internalType": "address",
          "name": "",
          "type": "address"
        }
      ],
      "name": "totalClaimed",
      "outputs": [
        {
          "internalType": "uint96",
          "name": "",
          "type": "uint96"
        }
      ],
      "stateMutability": "view",
      "type": "function"
    },
    {
      "inputs": [],
      "name": "totalSupply",
      "outputs": [
        {
          "internalType": "uint256",
          "name": "",
          "type": "uint256"
        }
      ],
      "stateMutability": "view",
      "type": "function"
    },
    {
      "inputs": [],
      "name": "totalVotingPower",
      "outputs": [
        {
          "internalType": "uint96",
          "name": "",
          "type": "uint96"
        }
      ],
      "stateMutability": "view",
      "type": "function"
    },
    {
      "inputs": [
        {
          "internalType": "address",
          "name": "newOwner",
          "type": "address"
        }
      ],
      "name": "transferOwnership",
      "outputs": [],
      "stateMutability": "nonpayable",
      "type": "function"
    },
    {
      "inputs": [],
      "name": "unallocated",
      "outputs": [
        {
          "internalType": "uint96",
          "name": "",
          "type": "uint96"
        }
      ],
      "stateMutability": "view",
      "type": "function"
    },
    {
      "inputs": [
        {
          "internalType": "address",
          "name": "account",
          "type": "address"
        }
      ],
      "name": "votingPower",
      "outputs": [
        {
          "internalType": "uint96",
          "name": "",
          "type": "uint96"
        }
      ],
      "stateMutability": "view",
      "type": "function"
    }
  ],
  "bytecode": "0x6101206040523480156200001257600080fd5b5060405162002bc038038062002bc0833981016040819052620000359162000355565b6040518060400160405280600c81526020016b2932b632b0b9b2902827a7a360a11b81525060405180604001604052806005815260200164392827a7a360d91b81525060128888888888888888888280600090805190602001906200009c92919062000292565b50508151620000b390600790602085019062000292565b5060f81b7fff00000000000000000000000000000000000000000000000000000000000000166080525060009050620000e93390565b600880546001600160a01b0319166001600160a01b0383169081179091556040519192509060009060008051602062002ba0833981519152908290a3506001600955620001368662000180565b60609490941b6001600160601b031990811661010052600a80549091166001600160601b03949094169390931790925560a05260c05260e052506200040698505050505050505050565b6008546001600160a01b03163314620001e05760405162461bcd60e51b815260206004820181905260248201527f4f776e61626c653a2063616c6c6572206973206e6f7420746865206f776e657260448201526064015b60405180910390fd5b6001600160a01b038116620002475760405162461bcd60e51b815260206004820152602660248201527f4f776e61626c653a206e6577206f776e657220697320746865207a65726f206160448201526564647265737360d01b6064820152608401620001d7565b6008546040516001600160a01b0380841692169060008051602062002ba083398151915290600090a3600880546001600160a01b0319166001600160a01b0392909216919091179055565b828054620002a090620003c9565b90600052602060002090601f016020900481019282620002c457600085556200030f565b82601f10620002df57805160ff19168380011785556200030f565b828001600101855582156200030f579182015b828111156200030f578251825591602001919060010190620002f2565b506200031d92915062000321565b5090565b5b808211156200031d576000815560010162000322565b80516001600160a01b03811681146200035057600080fd5b919050565b60008060008060008060c087890312156200036e578182fd5b620003798762000338565b9550620003896020880162000338565b60408801519095506001600160601b0381168114620003a6578283fd5b80945050606087015192506080870151915060a087015190509295509295509295565b600181811c90821680620003de57607f821691505b602082108114156200040057634e487b7160e01b600052602260045260246000fd5b50919050565b60805160f81c60a05160c05160e0516101005160601c61271e62000482600039600081816105b901526108100152600081816102fc0152818161119401526111cb0152600081816102670152611139015260008181610422015281816111100152818161116f01526111ec015260006102cd015261271e6000f3fe608060405234801561001057600080fd5b50600436106101ef5760003560e01c8063782d6fe11161010f578063df1c455c116100a2578063f0192f5511610071578063f0192f5514610527578063f1127ed81461053a578063f2fde38b146105a1578063fc0c546a146105b4576101ef565b8063df1c455c146104b1578063e42c1b20146104c4578063e7a324dc146104d7578063ef5d9ae8146104fe576101ef565b806395d89b41116100de57806395d89b4114610475578063b4b5ea571461047d578063c07473f614610490578063c3cda5201461049e576101ef565b8063782d6fe11461040a57806378e979251461041d5780637ecebe00146104445780638da5cb5b14610464576101ef565b80633e5ea10a11610187578063671b379311610156578063671b3793146103845780636fcfff451461039557806370a08231146103d0578063715018a614610402576101ef565b80633e5ea10a1461031e5780634e71d92d14610326578063587cde1e146103305780635c19a95c14610371576101ef565b806318160ddd116101c357806318160ddd1461029757806320606b701461029f578063313ce567146102c65780633197cbb6146102f7576101ef565b80628cc262146101f457806306375ef21461022457806306fdde031461024d578063160a341e14610262575b600080fd5b610207610202366004612002565b6105db565b6040516001600160601b0390911681526020015b60405180910390f35b610207610232366004612002565b600b602052600090815260409020546001600160601b031681565b610255610686565b60405161021b9190612260565b6102897f000000000000000000000000000000000000000000000000000000000000000081565b60405190815260200161021b565b610289610695565b6102897f8cad95687ba82c2ce50e74f7b754645e5117c3a5bec8151c0726d5857980a86681565b60405160ff7f000000000000000000000000000000000000000000000000000000000000000016815260200161021b565b6102897f000000000000000000000000000000000000000000000000000000000000000081565b6102076106b7565b61032e61070b565b005b61035961033e366004612002565b6003602052600090815260409020546001600160a01b031681565b6040516001600160a01b03909116815260200161021b565b61032e61037f366004612002565b610887565b6001546001600160601b0316610207565b6103bb6103a3366004612002565b60056020526000908152604090205463ffffffff1681565b60405163ffffffff909116815260200161021b565b6102896103de366004612002565b6001600160a01b03166000908152600260205260409020546001600160601b031690565b61032e610894565b61020761041836600461201c565b610908565b6102897f000000000000000000000000000000000000000000000000000000000000000081565b610289610452366004612002565b60066020526000908152604090205481565b6008546001600160a01b0316610359565b610255610b8f565b61020761048b366004612002565b610c21565b6102076103de366004612002565b61032e6104ac366004612045565b610c9e565b600a54610207906001600160601b031681565b61032e6104d23660046120e1565b610f71565b6102897fe48329057bfd03d55e49b547132e39cffd9c1820ad7b9d4c5307691425d15adf81565b61020761050c366004612002565b600c602052600090815260409020546001600160601b031681565b61020761053536600461216a565b61110c565b61057d6105483660046120a3565b600460209081526000928352604080842090915290825290205463ffffffff811690600160201b90046001600160601b031682565b6040805163ffffffff90931683526001600160601b0390911660208301520161021b565b61032e6105af366004612002565b61123e565b6103597f000000000000000000000000000000000000000000000000000000000000000081565b6001600160a01b0381166000908152600b60205260408120548190610608906001600160601b031661110c565b90506001600160601b038116610622576000915050610681565b61067d81600c6000866001600160a01b03166001600160a01b0316815260200190815260200160002060009054906101000a90046001600160601b031660405180606001604052806022815260200161252860229139611329565b9150505b919050565b6060610690611375565b905090565b60006106a96001546001600160601b031690565b6001600160601b0316905090565b60006106906106fd6106d16001546001600160601b031690565b600a546040805160608101909152602e8082526001600160601b039092169161254a6020830139611384565b6001600160601b031661110c565b600260095414156107635760405162461bcd60e51b815260206004820152601f60248201527f5265656e7472616e637947756172643a207265656e7472616e742063616c6c0060448201526064015b60405180910390fd5b60026009556000610773336105db565b90506001600160601b0381166107895750610880565b336000908152600c60209081526040918290205482516060810190935260318084526107cb936001600160601b03909216928592919061257890830139611384565b336000818152600c6020526040902080546001600160601b0319166001600160601b03939093169290921790915561080390826113d1565b6108406001600160a01b037f000000000000000000000000000000000000000000000000000000000000000016336001600160601b038416611582565b6040516001600160601b038216815233907f1f1f3fe51e971f9768a1b748e2a520609176b6de88aa4d9c02ace9fb9177189f9060200160405180910390a2505b6001600955565b61089133826115d9565b50565b6008546001600160a01b031633146108be5760405162461bcd60e51b815260040161075a90612293565b6008546040516000916001600160a01b0316907f8be0079c531659141344cd1fd0a4f28419497f9722a3daafe3b4186f6b6457e0908390a3600880546001600160a01b0319169055565b60004382106109685760405162461bcd60e51b815260206004820152602660248201527f556e693a3a6765745072696f72566f7465733a206e6f742079657420646574656044820152651c9b5a5b995960d21b606482015260840161075a565b6001600160a01b03831660009081526005602052604090205463ffffffff1680610996576000915050610b89565b6001600160a01b038416600090815260046020526040812084916109bb60018561237f565b63ffffffff90811682526020820192909252604001600020541611610a2e576001600160a01b0384166000908152600460205260408120906109fe60018461237f565b63ffffffff168152602081019190915260400160002054600160201b90046001600160601b03169150610b899050565b6001600160a01b038416600090815260046020908152604080832083805290915290205463ffffffff16831015610a69576000915050610b89565b600080610a7760018461237f565b90505b8163ffffffff168163ffffffff161115610b495760006002610a9c848461237f565b610aa69190612326565b610ab0908361237f565b6001600160a01b038816600090815260046020908152604080832063ffffffff858116855290835292819020815180830190925254928316808252600160201b9093046001600160601b031691810191909152919250871415610b1d57602001519450610b899350505050565b805163ffffffff16871115610b3457819350610b42565b610b3f60018361237f565b92505b5050610a7a565b506001600160a01b038516600090815260046020908152604080832063ffffffff909416835292905220546001600160601b03600160201b909104169150505b92915050565b606060078054610b9e906123f0565b80601f0160208091040260200160405190810160405280929190818152602001828054610bca906123f0565b8015610c175780601f10610bec57610100808354040283529160200191610c17565b820191906000526020600020905b815481529060010190602001808311610bfa57829003601f168201915b5050505050905090565b6001600160a01b03811660009081526005602052604081205463ffffffff1680610c4c57600061067d565b6001600160a01b038316600090815260046020526040812090610c7060018461237f565b63ffffffff168152602081019190915260400160002054600160201b90046001600160601b03169392505050565b60007f8cad95687ba82c2ce50e74f7b754645e5117c3a5bec8151c0726d5857980a8666000604051610cd091906121c5565b6040518091039020610cdf4690565b60408051602080820195909552808201939093526060830191909152306080808401919091528151808403909101815260a0830182528051908401207fe48329057bfd03d55e49b547132e39cffd9c1820ad7b9d4c5307691425d15adf60c08401526001600160a01b038b1660e084015261010083018a90526101208084018a90528251808503909101815261014084019092528151919093012061190160f01b610160830152610162820183905261018282018190529192506000906101a20160408051601f198184030181528282528051602091820120600080855291840180845281905260ff8a169284019290925260608301889052608083018790529092509060019060a0016020604051602081039080840390855afa158015610e0b573d6000803e3d6000fd5b5050604051601f1901519150506001600160a01b038116610e7c5760405162461bcd60e51b815260206004820152602560248201527f556e693a3a64656c656761746542795369673a20696e76616c6964207369676e604482015264617475726560d81b606482015260840161075a565b6001600160a01b0381166000908152600660205260408120805491610ea08361242b565b919050558914610efc5760405162461bcd60e51b815260206004820152602160248201527f556e693a3a64656c656761746542795369673a20696e76616c6964206e6f6e636044820152606560f81b606482015260840161075a565b87421115610f5a5760405162461bcd60e51b815260206004820152602560248201527f556e693a3a64656c656761746542795369673a207369676e61747572652065786044820152641c1a5c995960da1b606482015260840161075a565b610f64818b6115d9565b505050505b505050505050565b6008546001600160a01b03163314610f9b5760405162461bcd60e51b815260040161075a90612293565b828114610ff65760405162461bcd60e51b815260206004820152602360248201527f4c696e65617252656c65617365546f6b656e3a206c656e677468206d69736d616044820152620e8c6d60eb1b606482015260840161075a565b601483111561106d5760405162461bcd60e51b815260206004820152603860248201527f4c696e65617252656c65617365546f6b656e3a206d617820323020686f6c646560448201527f727320617420696e697469616c20616c6c6f636174696f6e0000000000000000606482015260840161075a565b60005b60ff8116841115611105576110f385858360ff168181106110a157634e487b7160e01b600052603260045260246000fd5b90506020020160208101906110b69190612002565b84848460ff168181106110d957634e487b7160e01b600052603260045260246000fd5b90506020020160208101906110ee9190612182565b611663565b806110fd81612446565b915050611070565b5050505050565b60007f000000000000000000000000000000000000000000000000000000000000000042108061115b57507f000000000000000000000000000000000000000000000000000000000000000042105b1561116857506000610681565b60006111be7f00000000000000000000000000000000000000000000000000000000000000006111b8427f000000000000000000000000000000000000000000000000000000000000000061177f565b90611795565b905061067d6112206112107f00000000000000000000000000000000000000000000000000000000000000007f0000000000000000000000000000000000000000000000000000000000000000611795565b61121a86856117a1565b906117ad565b604051806060016040528060358152602001612608603591396117b9565b6008546001600160a01b031633146112685760405162461bcd60e51b815260040161075a90612293565b6001600160a01b0381166112cd5760405162461bcd60e51b815260206004820152602660248201527f4f776e61626c653a206e6577206f776e657220697320746865207a65726f206160448201526564647265737360d01b606482015260840161075a565b6008546040516001600160a01b038084169216907f8be0079c531659141344cd1fd0a4f28419497f9722a3daafe3b4186f6b6457e090600090a3600880546001600160a01b0319166001600160a01b0392909216919091179055565b6000836001600160601b0316836001600160601b0316111582906113605760405162461bcd60e51b815260040161075a9190612260565b5061136b83856123a4565b90505b9392505050565b606060008054610b9e906123f0565b60008061139184866122f0565b9050846001600160601b0316816001600160601b0316101583906113c85760405162461bcd60e51b815260040161075a9190612260565b50949350505050565b6001600160a01b03821661144d5760405162461bcd60e51b815260206004820152603a60248201527f566f74696e67506f7765723a3a5f6275726e566f7465733a2063616e6e6f742060448201527f6275726e2066726f6d20746865207a65726f2061646472657373000000000000606482015260840161075a565b6001600160a01b03821660009081526002602090815260409182902054825160608101909352602f808452611498936001600160601b03909216928592919061249390830139611329565b6001600160a01b03831660009081526002602090815260409182902080546001600160601b0319166001600160601b0394851617905560015482516060810190935260308084526114f994919091169285929091906125d890830139611329565b600180546001600160601b0319166001600160601b0392831617905560405190821681526000906001600160a01b038416907fddf252ad1be2c89b69c2b068fc378daa952ba7f163c4a11628f55a4df523b3ef9060200160405180910390a36001600160a01b0380831660009081526003602052604081205461157e921690836117e8565b5050565b604080516001600160a01b038416602482015260448082018490528251808303909101815260649091019091526020810180516001600160e01b031663a9059cbb60e01b1790526115d4908490611994565b505050565b6001600160a01b03808316600081815260036020818152604080842080546002845282862054949093528787166001600160a01b031984168117909155905191909516946001600160601b039092169391928592917f3134e8a2e6d97e929a7e54011ea5485d7d196dd5f0ba4d4ef95803e8e3fc257f9190a461165d8284836117e8565b50505050565b600a546040805160608101909152602c808252611693926001600160601b031691849161263d6020830139611329565b600a80546001600160601b0319166001600160601b039283161790556001600160a01b0383166000908152600b60209081526040918290205482516060810190935260388084526116f494919091169285929091906124c290830139611384565b6001600160a01b0383166000908152600b6020526040902080546001600160601b0319166001600160601b03929092169190911790556117348282611a66565b6040516001600160601b03821681526001600160a01b038316907fe98c6a9d23f0bdbbdb09b3c484babe625e095c4774eae415a7b1218c739d76529060200160405180910390a25050565b600081831061178e578161136e565b5090919050565b600061136e8284612368565b600061136e8284612349565b600061136e8284612312565b600081600160601b84106117e05760405162461bcd60e51b815260040161075a9190612260565b509192915050565b816001600160a01b0316836001600160a01b03161415801561181357506000816001600160601b0316115b156115d4576001600160a01b038316156118d8576001600160a01b03831660009081526005602052604081205463ffffffff16908161185357600061189f565b6001600160a01b03851660009081526004602052604081209061187760018561237f565b63ffffffff168152602081019190915260400160002054600160201b90046001600160601b03165b905060006118c682856040518060600160405280602781526020016126c260279139611329565b90506118d486848484611c12565b5050505b6001600160a01b038216156115d4576001600160a01b03821660009081526005602052604081205463ffffffff16908161191357600061195f565b6001600160a01b03841660009081526004602052604081209061193760018561237f565b63ffffffff168152602081019190915260400160002054600160201b90046001600160601b03165b90506000611986828560405180606001604052806026815260200161266960269139611384565b9050610f6985848484611c12565b60006119e9826040518060400160405280602081526020017f5361666545524332303a206c6f772d6c6576656c2063616c6c206661696c6564815250856001600160a01b0316611e0a9092919063ffffffff16565b8051909150156115d45780806020019051810190611a07919061214a565b6115d45760405162461bcd60e51b815260206004820152602a60248201527f5361666545524332303a204552433230206f7065726174696f6e20646964206e6044820152691bdd081cdd58d8d9595960b21b606482015260840161075a565b6001600160a01b038216611ae25760405162461bcd60e51b815260206004820152603860248201527f566f74696e67506f7765723a3a5f6d696e74566f7465733a2063616e6e6f742060448201527f6d696e7420746f20746865207a65726f20616464726573730000000000000000606482015260840161075a565b6001600160a01b03821660009081526002602090815260409182902054825160608101909352602e808452611b2d936001600160601b0390921692859291906124fa90830139611384565b6001600160a01b03831660009081526002602090815260409182902080546001600160601b0319166001600160601b03948516179055600154825160608101909352602f808452611b8e94919091169285929091906125a990830139611384565b600180546001600160601b0319166001600160601b0392831617905560405190821681526001600160a01b038316906000907fddf252ad1be2c89b69c2b068fc378daa952ba7f163c4a11628f55a4df523b3ef9060200160405180910390a36001600160a01b0380831660009081526003602052604081205461157e9216836117e8565b6000611c364360405180606001604052806033815260200161268f60339139611e19565b905060008463ffffffff16118015611c9057506001600160a01b038516600090815260046020526040812063ffffffff831691611c7460018861237f565b63ffffffff908116825260208201929092526040016000205416145b15611d04576001600160a01b03851660009081526004602052604081208391611cba60018861237f565b63ffffffff168152602081019190915260400160002080546001600160601b0392909216600160201b026fffffffffffffffffffffffff0000000019909216919091179055611db5565b60408051808201825263ffffffff80841682526001600160601b0380861660208085019182526001600160a01b038b166000908152600482528681208b8616825290915294909420925183549451909116600160201b026fffffffffffffffffffffffffffffffff19909416911617919091179055611d848460016122c8565b6001600160a01b0386166000908152600560205260409020805463ffffffff191663ffffffff929092169190911790555b604080516001600160601b038086168252841660208201526001600160a01b038716917fdec2bacdd2f05b59de34da9b523dff8be42e5e38e818c82fdb0bae774387a724910160405180910390a25050505050565b606061136b8484600085611e40565b600081600160201b84106117e05760405162461bcd60e51b815260040161075a9190612260565b606082471015611ea15760405162461bcd60e51b815260206004820152602660248201527f416464726573733a20696e73756666696369656e742062616c616e636520666f6044820152651c8818d85b1b60d21b606482015260840161075a565b843b611eef5760405162461bcd60e51b815260206004820152601d60248201527f416464726573733a2063616c6c20746f206e6f6e2d636f6e7472616374000000604482015260640161075a565b600080866001600160a01b03168587604051611f0b91906121a9565b60006040518083038185875af1925050503d8060008114611f48576040519150601f19603f3d011682016040523d82523d6000602084013e611f4d565b606091505b5091509150611f5d828286611f68565b979650505050505050565b60608315611f7757508161136e565b825115611f875782518084602001fd5b8160405162461bcd60e51b815260040161075a9190612260565b80356001600160a01b038116811461068157600080fd5b60008083601f840112611fc9578182fd5b50813567ffffffffffffffff811115611fe0578182fd5b6020830191508360208260051b8501011115611ffb57600080fd5b9250929050565b600060208284031215612013578081fd5b61136e82611fa1565b6000806040838503121561202e578081fd5b61203783611fa1565b946020939093013593505050565b60008060008060008060c0878903121561205d578182fd5b61206687611fa1565b95506020870135945060408701359350606087013560ff81168114612089578283fd5b9598949750929560808101359460a0909101359350915050565b600080604083850312156120b5578182fd5b6120be83611fa1565b9150602083013563ffffffff811681146120d6578182fd5b809150509250929050565b600080600080604085870312156120f6578384fd5b843567ffffffffffffffff8082111561210d578586fd5b61211988838901611fb8565b90965094506020870135915080821115612131578384fd5b5061213e87828801611fb8565b95989497509550505050565b60006020828403121561215b578081fd5b8151801515811461136e578182fd5b60006020828403121561217b578081fd5b5035919050565b600060208284031215612193578081fd5b81356001600160601b038116811461136e578182fd5b600082516121bb8184602087016123c4565b9190910192915050565b600080835482600182811c9150808316806121e157607f831692505b602080841082141561220157634e487b7160e01b87526022600452602487fd5b818015612215576001811461222657612252565b60ff19861689528489019650612252565b60008a815260209020885b8681101561224a5781548b820152908501908301612231565b505084890196505b509498975050505050505050565b600060208252825180602084015261227f8160408501602087016123c4565b601f01601f19169190910160400192915050565b6020808252818101527f4f776e61626c653a2063616c6c6572206973206e6f7420746865206f776e6572604082015260600190565b600063ffffffff8083168185168083038211156122e7576122e7612466565b01949350505050565b60006001600160601b038083168185168083038211156122e7576122e7612466565b6000826123215761232161247c565b500490565b600063ffffffff8084168061233d5761233d61247c565b92169190910492915050565b600081600019048311821515161561236357612363612466565b500290565b60008282101561237a5761237a612466565b500390565b600063ffffffff8381169083168181101561239c5761239c612466565b039392505050565b60006001600160601b038381169083168181101561239c5761239c612466565b60005b838110156123df5781810151838201526020016123c7565b8381111561165d5750506000910152565b600181811c9082168061240457607f821691505b6020821081141561242557634e487b7160e01b600052602260045260246000fd5b50919050565b600060001982141561243f5761243f612466565b5060010190565b600060ff821660ff81141561245d5761245d612466565b60010192915050565b634e487b7160e01b600052601160045260246000fd5b634e487b7160e01b600052601260045260246000fdfe566f74696e67506f7765723a3a5f6275726e566f7465733a206275726e20616d6f756e7420756e646572666c6f77734c696e65617252656c65617365546f6b656e3a3a5f616c6c6f636174653a20746f74616c20616c6c6f636174696f6e206f766572666c6f77566f74696e67506f7765723a3a5f6d696e74566f7465733a206d696e7420616d6f756e74206f766572666c6f77734c696e65617252656c65617365546f6b656e3a206561726e656420696e76616c69644c696e65617252656c65617365546f6b656e3a3a72656c65617361626c65537570706c793a206f766572666c6f774c696e65617252656c65617365546f6b656e3a3a636c61696d3a20746f74616c20636c61696d6564206f766572666c6f77566f74696e67506f7765723a3a5f6d696e74566f7465733a20746f74616c20737570706c79206f766572666c6f7773566f74696e67506f7765723a3a5f6275726e566f7465733a20746f74616c20737570706c7920756e646572666c6f77734c696e65617252656c65617365546f6b656e3a3a63697263756c6174696e67537570706c793a20696e76616c696420616d6f756e744c696e65617252656c65617365546f6b656e3a3a5f616c6c6f636174653a206f766572616c6c6f6361746564556e693a3a5f6d6f7665566f7465733a20766f746520616d6f756e74206f766572666c6f7773556e693a3a5f7772697465436865636b706f696e743a20626c6f636b206e756d62657220657863656564732033322062697473556e693a3a5f6d6f7665566f7465733a20766f746520616d6f756e7420756e646572666c6f7773a2646970667358221220bdbe1b60d245b22469a891300a24209a39107e8e2f766fab608f1d78355e7de564736f6c634300080300338be0079c531659141344cd1fd0a4f28419497f9722a3daafe3b4186f6b6457e0",
  "immutableReferences": {
    "4343": [
      {
        "length": 32,
        "start": 1058
      },
      {
        "length": 32,
        "start": 4368
      },
      {
        "length": 32,
        "start": 4463
      },
      {
        "length": 32,
        "start": 4588
      }
    ],
    "4346": [
      {
        "length": 32,
        "start": 615
      },
      {
        "length": 32,
        "start": 4409
      }
    ],
    "4349": [
      {
        "length": 32,
        "start": 764
      },
      {
        "length": 32,
        "start": 4500
      },
      {
        "length": 32,
        "start": 4555
      }
    ],
    "4353": [
      {
        "length": 32,
        "start": 1465
      },
      {
        "length": 32,
        "start": 2064
      }
    ],
    "5969": [
      {
        "length": 32,
        "start": 717
      }
    ]
  },
  "source": "// SPDX-License-Identifier: MIT\n\npragma solidity ^0.8.3;\n\nimport \"@ubeswap/governance/contracts/voting/LinearReleaseToken.sol\";\n\n/**\n * Released Ube token.\n */\ncontract ReleasePOOF is LinearReleaseToken {\n  constructor(\n    address owner_,\n    address poof_,\n    uint96 amount_,\n    uint256 startTime_,\n    uint256 cliffEndTime_,\n    uint256 endTime_\n  )  LinearReleaseToken(\n       \"Release POOF\",\n       \"rPOOF\",\n       18,\n       owner_,\n       poof_,\n       amount_,\n       startTime_,\n       cliffEndTime_,\n       endTime_\n     ) {}\n}\n",
  "sourcePath": "/private/tmp/poof-deploy/poof-token/contracts/ReleasePOOF.sol",
  "compiler": {
    "name": "solc",
    "version": "0.8.3+commit.8d00100c.Emscripten.clang"
  },
  "schemaVersion": "3.2.4",
  "updatedAt": "2021-06-24T15:00:26.350Z",
  "devdoc": {
    "kind": "dev",
    "methods": {
      "allocate(address[],uint96[])": {
        "params": {
          "_amounts": "Array of amounts of tokens to issue",
          "_holders": "Array of holders of release tokens"
        }
      },
      "delegate(address)": {
        "params": {
          "delegatee": "The address to delegate votes to"
        }
      },
      "delegateBySig(address,uint256,uint256,uint8,bytes32,bytes32)": {
        "params": {
          "delegatee": "The address to delegate votes to",
          "expiry": "The time at which to expire the signature",
          "nonce": "The contract state required to match the signature",
          "r": "Half of the ECDSA signature pair",
          "s": "Half of the ECDSA signature pair",
          "v": "The recovery byte of the signature"
        }
      },
      "getCurrentVotes(address)": {
        "params": {
          "account": "The address to get votes balance"
        },
        "returns": {
          "_0": "The number of current votes for `account`"
        }
      },
      "getPriorVotes(address,uint256)": {
        "details": "Block number must be a finalized block or else this function will revert to prevent misinformation.",
        "params": {
          "account": "The address of the account to check",
          "blockNumber": "The block number to get the vote balance at"
        },
        "returns": {
          "_0": "The number of votes the account had as of the given block"
        }
      },
      "owner()": {
        "details": "Returns the address of the current owner."
      },
      "renounceOwnership()": {
        "details": "Leaves the contract without owner. It will not be possible to call `onlyOwner` functions anymore. Can only be called by the current owner. NOTE: Renouncing ownership will leave the contract without an owner, thereby removing any functionality that is only available to the owner."
      },
      "transferOwnership(address)": {
        "details": "Transfers ownership of the contract to a new account (`newOwner`). Can only be called by the current owner."
      },
      "votingPower(address)": {
        "params": {
          "account": "The address of the account to get the balance of"
        },
        "returns": {
          "_0": "The amount of voting power held"
        }
      }
    },
    "version": 1
  },
  "userdoc": {
    "events": {
      "Allocated(address,uint96)": {
        "notice": "Called when tokens are allocated to someone."
      },
      "Claimed(address,uint96)": {
        "notice": "Called when tokens are claimed by someone."
      },
      "DelegateChanged(address,address,address)": {
        "notice": "An event thats emitted when an account changes its delegate"
      },
      "DelegateVotesChanged(address,uint256,uint256)": {
        "notice": "An event thats emitted when a delegate account's vote balance changes"
      },
      "Transfer(address,address,uint256)": {
        "notice": "An event emitted when an account's voting power is transferred."
      }
    },
    "kind": "user",
    "methods": {
      "DELEGATION_TYPEHASH()": {
        "notice": "The EIP-712 typehash for the delegation struct used by the contract"
      },
      "DOMAIN_TYPEHASH()": {
        "notice": "The EIP-712 typehash for the contract's domain"
      },
      "allocate(address[],uint96[])": {
        "notice": "Allocates release tokens to the specified holders."
      },
      "checkpoints(address,uint32)": {
        "notice": "A record of votes checkpoints for each account, by index"
      },
      "claim()": {
        "notice": "Claims any tokens that the sender is entitled to."
      },
      "cliffEndTime()": {
        "notice": "Timestamp of when the cliff ends."
      },
      "delegate(address)": {
        "notice": "Delegate votes from `msg.sender` to `delegatee`"
      },
      "delegateBySig(address,uint256,uint256,uint8,bytes32,bytes32)": {
        "notice": "Delegates votes from signatory to `delegatee`"
      },
      "delegates(address)": {
        "notice": "A record of each accounts delegate"
      },
      "earned(address)": {
        "notice": "Computes the number of tokens that the address can redeem."
      },
      "endTime()": {
        "notice": "Timestamp of when the release ends."
      },
      "getCurrentVotes(address)": {
        "notice": "Gets the current votes balance for `account`"
      },
      "getPriorVotes(address,uint256)": {
        "notice": "Determine the prior number of votes for an account as of a block number"
      },
      "lifetimeTotalAllocated(address)": {
        "notice": "The total number of tokens ever allocated to each address."
      },
      "nonces(address)": {
        "notice": "A record of states for signing / validating signatures"
      },
      "numCheckpoints(address)": {
        "notice": "The number of checkpoints for each account"
      },
      "releasableSupply()": {
        "notice": "The total amount of UBE tokens that can be redeemed if all tokens were distributed."
      },
      "releasableSupplyOfPrincipal(uint256)": {
        "notice": "Computes the releasable supply of the given principal amount."
      },
      "startTime()": {
        "notice": "Timestamp of when the release starts."
      },
      "token()": {
        "notice": "Token to release"
      },
      "totalClaimed(address)": {
        "notice": "The total number of tokens each address ever claimed."
      },
      "totalVotingPower()": {
        "notice": "Total voting power in existence."
      },
      "unallocated()": {
        "notice": "Unallocated share"
      },
      "votingPower(address)": {
        "notice": "Get the amount of voting power of an account"
      }
    },
    "notice": "Released Ube token.",
    "version": 1
  }
}