{
  "contractName": "RewardsCELO",
  "abi": [
    {
      "inputs": [],
      "stateMutability": "nonpayable",
      "type": "constructor"
    },
    {
      "anonymous": false,
      "inputs": [
        {
          "indexed": true,
          "internalType": "address",
          "name": "owner",
          "type": "address"
        },
        {
          "indexed": true,
          "internalType": "address",
          "name": "spender",
          "type": "address"
        },
        {
          "indexed": false,
          "internalType": "uint256",
          "name": "value",
          "type": "uint256"
        }
      ],
      "name": "Approval",
      "type": "event"
    },
    {
      "anonymous": false,
      "inputs": [
        {
          "indexed": true,
          "internalType": "uint256",
          "name": "previousFeeDivisor",
          "type": "uint256"
        },
        {
          "indexed": true,
          "internalType": "uint256",
          "name": "newFeeDivisor",
          "type": "uint256"
        }
      ],
      "name": "FeeDivisorChanged",
      "type": "event"
    },
    {
      "anonymous": false,
      "inputs": [
        {
          "indexed": true,
          "internalType": "address",
          "name": "previousFeeTo",
          "type": "address"
        },
        {
          "indexed": true,
          "internalType": "address",
          "name": "newFeeTo",
          "type": "address"
        }
      ],
      "name": "FeeToChanged",
      "type": "event"
    },
    {
      "anonymous": false,
      "inputs": [
        {
          "indexed": true,
          "internalType": "address",
          "name": "previousOwner",
          "type": "address"
        },
        {
          "indexed": true,
          "internalType": "address",
          "name": "newOwner",
          "type": "address"
        }
      ],
      "name": "OwnershipTransferred",
      "type": "event"
    },
    {
      "anonymous": false,
      "inputs": [
        {
          "indexed": true,
          "internalType": "address",
          "name": "from",
          "type": "address"
        },
        {
          "indexed": true,
          "internalType": "address",
          "name": "to",
          "type": "address"
        },
        {
          "indexed": false,
          "internalType": "uint256",
          "name": "value",
          "type": "uint256"
        }
      ],
      "name": "Transfer",
      "type": "event"
    },
    {
      "anonymous": false,
      "inputs": [
        {
          "indexed": true,
          "internalType": "address",
          "name": "wrappedCelo",
          "type": "address"
        }
      ],
      "name": "WrappedCeloAdded",
      "type": "event"
    },
    {
      "inputs": [],
      "name": "MIN_FEE_DIVISOR",
      "outputs": [
        {
          "internalType": "uint256",
          "name": "",
          "type": "uint256"
        }
      ],
      "stateMutability": "view",
      "type": "function",
      "constant": true
    },
    {
      "inputs": [
        {
          "internalType": "address",
          "name": "owner",
          "type": "address"
        },
        {
          "internalType": "address",
          "name": "spender",
          "type": "address"
        }
      ],
      "name": "allowance",
      "outputs": [
        {
          "internalType": "uint256",
          "name": "",
          "type": "uint256"
        }
      ],
      "stateMutability": "view",
      "type": "function",
      "constant": true
    },
    {
      "inputs": [
        {
          "internalType": "address",
          "name": "spender",
          "type": "address"
        },
        {
          "internalType": "uint256",
          "name": "amount",
          "type": "uint256"
        }
      ],
      "name": "approve",
      "outputs": [
        {
          "internalType": "bool",
          "name": "",
          "type": "bool"
        }
      ],
      "stateMutability": "nonpayable",
      "type": "function"
    },
    {
      "inputs": [
        {
          "internalType": "address",
          "name": "account",
          "type": "address"
        }
      ],
      "name": "balanceOf",
      "outputs": [
        {
          "internalType": "uint256",
          "name": "",
          "type": "uint256"
        }
      ],
      "stateMutability": "view",
      "type": "function",
      "constant": true
    },
    {
      "inputs": [
        {
          "internalType": "address",
          "name": "",
          "type": "address"
        }
      ],
      "name": "bans",
      "outputs": [
        {
          "internalType": "bool",
          "name": "",
          "type": "bool"
        }
      ],
      "stateMutability": "view",
      "type": "function",
      "constant": true
    },
    {
      "inputs": [],
      "name": "decimals",
      "outputs": [
        {
          "internalType": "uint8",
          "name": "",
          "type": "uint8"
        }
      ],
      "stateMutability": "view",
      "type": "function",
      "constant": true
    },
    {
      "inputs": [
        {
          "internalType": "address",
          "name": "spender",
          "type": "address"
        },
        {
          "internalType": "uint256",
          "name": "subtractedValue",
          "type": "uint256"
        }
      ],
      "name": "decreaseAllowance",
      "outputs": [
        {
          "internalType": "bool",
          "name": "",
          "type": "bool"
        }
      ],
      "stateMutability": "nonpayable",
      "type": "function"
    },
    {
      "inputs": [],
      "name": "feeDivisor",
      "outputs": [
        {
          "internalType": "uint256",
          "name": "",
          "type": "uint256"
        }
      ],
      "stateMutability": "view",
      "type": "function",
      "constant": true
    },
    {
      "inputs": [],
      "name": "feeTo",
      "outputs": [
        {
          "internalType": "address",
          "name": "",
          "type": "address"
        }
      ],
      "stateMutability": "view",
      "type": "function",
      "constant": true
    },
    {
      "inputs": [
        {
          "internalType": "address",
          "name": "spender",
          "type": "address"
        },
        {
          "internalType": "uint256",
          "name": "addedValue",
          "type": "uint256"
        }
      ],
      "name": "increaseAllowance",
      "outputs": [
        {
          "internalType": "bool",
          "name": "",
          "type": "bool"
        }
      ],
      "stateMutability": "nonpayable",
      "type": "function"
    },
    {
      "inputs": [],
      "name": "name",
      "outputs": [
        {
          "internalType": "string",
          "name": "",
          "type": "string"
        }
      ],
      "stateMutability": "view",
      "type": "function",
      "constant": true
    },
    {
      "inputs": [],
      "name": "owner",
      "outputs": [
        {
          "internalType": "address",
          "name": "",
          "type": "address"
        }
      ],
      "stateMutability": "view",
      "type": "function",
      "constant": true
    },
    {
      "inputs": [],
      "name": "renounceOwnership",
      "outputs": [],
      "stateMutability": "nonpayable",
      "type": "function"
    },
    {
      "inputs": [],
      "name": "symbol",
      "outputs": [
        {
          "internalType": "string",
          "name": "",
          "type": "string"
        }
      ],
      "stateMutability": "view",
      "type": "function",
      "constant": true
    },
    {
      "inputs": [],
      "name": "totalSupply",
      "outputs": [
        {
          "internalType": "uint256",
          "name": "",
          "type": "uint256"
        }
      ],
      "stateMutability": "view",
      "type": "function",
      "constant": true
    },
    {
      "inputs": [
        {
          "internalType": "address",
          "name": "recipient",
          "type": "address"
        },
        {
          "internalType": "uint256",
          "name": "amount",
          "type": "uint256"
        }
      ],
      "name": "transfer",
      "outputs": [
        {
          "internalType": "bool",
          "name": "",
          "type": "bool"
        }
      ],
      "stateMutability": "nonpayable",
      "type": "function"
    },
    {
      "inputs": [
        {
          "internalType": "address",
          "name": "sender",
          "type": "address"
        },
        {
          "internalType": "address",
          "name": "recipient",
          "type": "address"
        },
        {
          "internalType": "uint256",
          "name": "amount",
          "type": "uint256"
        }
      ],
      "name": "transferFrom",
      "outputs": [
        {
          "internalType": "bool",
          "name": "",
          "type": "bool"
        }
      ],
      "stateMutability": "nonpayable",
      "type": "function"
    },
    {
      "inputs": [
        {
          "internalType": "address",
          "name": "newOwner",
          "type": "address"
        }
      ],
      "name": "transferOwnership",
      "outputs": [],
      "stateMutability": "nonpayable",
      "type": "function"
    },
    {
      "inputs": [
        {
          "internalType": "uint256",
          "name": "",
          "type": "uint256"
        }
      ],
      "name": "wrappedCelos",
      "outputs": [
        {
          "internalType": "contract IWrappedCelo",
          "name": "",
          "type": "address"
        }
      ],
      "stateMutability": "view",
      "type": "function",
      "constant": true
    },
    {
      "inputs": [
        {
          "internalType": "address",
          "name": "wrappedCelo",
          "type": "address"
        }
      ],
      "name": "addWrappedCelo",
      "outputs": [],
      "stateMutability": "nonpayable",
      "type": "function"
    },
    {
      "inputs": [
        {
          "internalType": "uint256",
          "name": "toDeposit",
          "type": "uint256"
        },
        {
          "internalType": "uint256",
          "name": "wrappedCeloIdx",
          "type": "uint256"
        }
      ],
      "name": "deposit",
      "outputs": [],
      "stateMutability": "nonpayable",
      "type": "function"
    },
    {
      "inputs": [],
      "name": "getTotalSupplyCELO",
      "outputs": [
        {
          "internalType": "uint256",
          "name": "",
          "type": "uint256"
        }
      ],
      "stateMutability": "view",
      "type": "function",
      "constant": true
    },
    {
      "inputs": [
        {
          "internalType": "uint256",
          "name": "toWithdraw",
          "type": "uint256"
        }
      ],
      "name": "withdraw",
      "outputs": [],
      "stateMutability": "nonpayable",
      "type": "function"
    },
    {
      "inputs": [
        {
          "internalType": "address",
          "name": "_feeTo",
          "type": "address"
        }
      ],
      "name": "setFeeTo",
      "outputs": [],
      "stateMutability": "nonpayable",
      "type": "function"
    },
    {
      "inputs": [
        {
          "internalType": "uint256",
          "name": "_feeDivisor",
          "type": "uint256"
        }
      ],
      "name": "setFeeDivisor",
      "outputs": [],
      "stateMutability": "nonpayable",
      "type": "function"
    },
    {
      "inputs": [],
      "name": "clearFeeDivisor",
      "outputs": [],
      "stateMutability": "nonpayable",
      "type": "function"
    },
    {
      "inputs": [
        {
          "internalType": "uint256",
          "name": "wrappedCeloIdx",
          "type": "uint256"
        }
      ],
      "name": "banWrappedCelo",
      "outputs": [],
      "stateMutability": "nonpayable",
      "type": "function"
    },
    {
      "inputs": [
        {
          "internalType": "uint256",
          "name": "wrappedCeloIdx",
          "type": "uint256"
        }
      ],
      "name": "unbanWrappedCelo",
      "outputs": [],
      "stateMutability": "nonpayable",
      "type": "function"
    },
    {
      "inputs": [
        {
          "internalType": "uint256",
          "name": "celoAmount",
          "type": "uint256"
        }
      ],
      "name": "celoToSavings",
      "outputs": [
        {
          "internalType": "uint256",
          "name": "",
          "type": "uint256"
        }
      ],
      "stateMutability": "view",
      "type": "function",
      "constant": true
    },
    {
      "inputs": [
        {
          "internalType": "uint256",
          "name": "savingsAmount",
          "type": "uint256"
        }
      ],
      "name": "savingsToCELO",
      "outputs": [
        {
          "internalType": "uint256",
          "name": "",
          "type": "uint256"
        }
      ],
      "stateMutability": "view",
      "type": "function",
      "constant": true
    }
  ],
  "bytecode": "0x60806040523480156200001157600080fd5b50604080518082018252600b81526a5265776172647343454c4f60a81b6020808301918252835180850190945260058452647243454c4f60d81b9084015281519192916200006291600391620000ea565b50805162000078906004906020840190620000ea565b50505060006200008d620000e660201b60201c565b600580546001600160a01b0319166001600160a01b038316908117909155604051919250906000907f8be0079c531659141344cd1fd0a4f28419497f9722a3daafe3b4186f6b6457e0908290a3506001600655620001cd565b3390565b828054620000f89062000190565b90600052602060002090601f0160209004810192826200011c576000855562000167565b82601f106200013757805160ff191683800117855562000167565b8280016001018555821562000167579182015b82811115620001675782518255916020019190600101906200014a565b506200017592915062000179565b5090565b5b808211156200017557600081556001016200017a565b600181811c90821680620001a557607f821691505b60208210811415620001c757634e487b7160e01b600052602260045260246000fd5b50919050565b611fd980620001dd6000396000f3fe608060405234801561001057600080fd5b50600436106101da5760003560e01c806376c41bff11610104578063a9059cbb116100a2578063e2bbb15811610071578063e2bbb15814610402578063f2fde38b14610415578063f30047eb14610428578063f46901ed1461043b57600080fd5b8063a9059cbb14610380578063ad285cad14610393578063cf038039146103b6578063dd62ed3e146103c957600080fd5b806395d89b41116100de57806395d89b41146103495780639a36f93214610351578063a457c2d71461035a578063a6be7bcf1461036d57600080fd5b806376c41bff1461031d5780638ca0a116146103305780638da5cb5b1461033857600080fd5b80632e1a7d4d1161017c5780635cefc85e1161014b5780635cefc85e146102c65780636be9e7dc146102d957806370a08231146102ec578063715018a61461031557600080fd5b80632e1a7d4d14610289578063313ce5671461029c57806339509351146102ab57806359669d17146102be57600080fd5b8063095ea7b3116101b8578063095ea7b31461023957806318160ddd1461025c578063188361d61461026e57806323b872dd1461027657600080fd5b8063017e7e58146101df578063043531b11461020f57806306fdde0314610224575b600080fd5b6009546101f2906001600160a01b031681565b6040516001600160a01b0390911681526020015b60405180910390f35b61022261021d366004611d97565b61044e565b005b61022c61050b565b6040516102069190611e04565b61024c610247366004611d4e565b61059d565b6040519015158152602001610206565b6002545b604051908152602001610206565b6102226105b3565b61024c610284366004611d13565b610617565b610222610297366004611d97565b6106ca565b60405160128152602001610206565b61024c6102b9366004611d4e565b610ac4565b610260610afb565b6102606102d4366004611d97565b610c50565b6102226102e7366004611d97565b610cdc565b6102606102fa366004611cc7565b6001600160a01b031660009081526020819052604090205490565b610222610d85565b61026061032b366004611d97565b610df9565b610260606481565b6005546001600160a01b03166101f2565b61022c610e84565b610260600a5481565b61024c610368366004611d4e565b610e93565b61022261037b366004611cc7565b610f2e565b61024c61038e366004611d4e565b610fd0565b61024c6103a1366004611cc7565b60086020526000908152604090205460ff1681565b6101f26103c4366004611d97565b610fdd565b6102606103d7366004611ce1565b6001600160a01b03918216600090815260016020908152604080832093909416825291909152205490565b610222610410366004611dc7565b611007565b610222610423366004611cc7565b611287565b610222610436366004611d97565b611372565b610222610449366004611cc7565b6113e4565b6005546001600160a01b031633146104815760405162461bcd60e51b815260040161047890611e37565b60405180910390fd5b60648110156104d25760405162461bcd60e51b815260206004820152601860248201527f4e657720666565207261746520697320746f6f206869676800000000000000006044820152606401610478565b600a805490829055604051829082907fa5515ea4135020b9aa5e5b31b04802a15e1742484ac08c9b82e86aea0d99689790600090a35050565b60606003805461051a90611f3d565b80601f016020809104026020016040519081016040528092919081815260200182805461054690611f3d565b80156105935780601f1061056857610100808354040283529160200191610593565b820191906000526020600020905b81548152906001019060200180831161057657829003601f168201915b5050505050905090565b60006105aa338484611460565b50600192915050565b6005546001600160a01b031633146105dd5760405162461bcd60e51b815260040161047890611e37565b600a805460009182905560405190919082907fa5515ea4135020b9aa5e5b31b04802a15e1742484ac08c9b82e86aea0d996897908390a350565b6000610624848484611585565b6001600160a01b0384166000908152600160209081526040808320338452909152902054828110156106a95760405162461bcd60e51b815260206004820152602860248201527f45524332303a207472616e7366657220616d6f756e74206578636565647320616044820152676c6c6f77616e636560c01b6064820152608401610478565b6106bd85336106b88685611efa565b611460565b60019150505b9392505050565b6002600654141561071d5760405162461bcd60e51b815260206004820152601f60248201527f5265656e7472616e637947756172643a207265656e7472616e742063616c6c006044820152606401610478565b60026006558061076f5760405162461bcd60e51b815260206004820152601c60248201527f43616e27742077697468647261772061207a65726f20616d6f756e74000000006044820152606401610478565b306370a08231336040516001600160e01b031960e084901b1681526001600160a01b03909116600482015260240160206040518083038186803b1580156107b557600080fd5b505afa1580156107c9573d6000803e3d6000fd5b505050506040513d601f19601f820116820180604052508101906107ed9190611daf565b81111561084a5760405162461bcd60e51b815260206004820152602560248201527f43616e2774207769746864726177206d6f7265207468616e20757365722062616044820152646c616e636560d81b6064820152608401610478565b6000610854610afb565b905060005b600754811015610ab05760006007828154811061088657634e487b7160e01b600052603260045260246000fd5b9060005260206000200160009054906101000a90046001600160a01b0316905060006109a5306001600160a01b03166318160ddd6040518163ffffffff1660e01b815260040160206040518083038186803b1580156108e457600080fd5b505afa1580156108f8573d6000803e3d6000fd5b505050506040513d601f19601f8201168201806040525081019061091c9190611daf565b6040516370a0823160e01b815230600482015261099f9088906001600160a01b038716906370a082319060240160206040518083038186803b15801561096157600080fd5b505afa158015610975573d6000803e3d6000fd5b505050506040513d601f19601f820116820180604052508101906109999190611daf565b9061175d565b90611769565b6009549091506000906001600160a01b0316158015906109c65750600a5415155b156109f657600a546109d9908390611769565b6009549091506109f6906001600160a01b03858116911683611775565b610a1533610a0484846117dd565b6001600160a01b0386169190611775565b6040516376c41bff60e01b815260048101839052610a98906001600160a01b038516906376c41bff9060240160206040518083038186803b158015610a5957600080fd5b505afa158015610a6d573d6000803e3d6000fd5b505050506040513d601f19601f82011682018060405250810190610a919190611daf565b86906117dd565b94505050508080610aa890611f72565b915050610859565b50610abb33836117e9565b50506001600655565b3360008181526001602090815260408083206001600160a01b038716845290915281205490916105aa9185906106b8908690611ea3565b600080805b600754811015610c4a57600060078281548110610b2d57634e487b7160e01b600052603260045260246000fd5b6000918252602090912001546040516370a0823160e01b81523060048201526001600160a01b03909116915081906376c41bff9082906370a082319060240160206040518083038186803b158015610b8457600080fd5b505afa158015610b98573d6000803e3d6000fd5b505050506040513d601f19601f82011682018060405250810190610bbc9190611daf565b6040518263ffffffff1660e01b8152600401610bda91815260200190565b60206040518083038186803b158015610bf257600080fd5b505afa158015610c06573d6000803e3d6000fd5b505050506040513d601f19601f82011682018060405250810190610c2a9190611daf565b610c349084611ea3565b9250508080610c4290611f72565b915050610b00565b50919050565b600080610c5b610afb565b90506106c38161099f306001600160a01b03166318160ddd6040518163ffffffff1660e01b815260040160206040518083038186803b158015610c9d57600080fd5b505afa158015610cb1573d6000803e3d6000fd5b505050506040513d601f19601f82011682018060405250810190610cd59190611daf565b869061175d565b6005546001600160a01b03163314610d065760405162461bcd60e51b815260040161047890611e37565b6007548110610d275760405162461bcd60e51b815260040161047890611e6c565b60016008600060078481548110610d4e57634e487b7160e01b600052603260045260246000fd5b6000918252602080832091909101546001600160a01b031683528201929092526040019020805460ff191691151591909117905550565b6005546001600160a01b03163314610daf5760405162461bcd60e51b815260040161047890611e37565b6005546040516000916001600160a01b0316907f8be0079c531659141344cd1fd0a4f28419497f9722a3daafe3b4186f6b6457e0908390a3600580546001600160a01b0319169055565b600080610e04610afb565b90506106c3306001600160a01b03166318160ddd6040518163ffffffff1660e01b815260040160206040518083038186803b158015610e4257600080fd5b505afa158015610e56573d6000803e3d6000fd5b505050506040513d601f19601f82011682018060405250810190610e7a9190611daf565b61099f858461175d565b60606004805461051a90611f3d565b3360009081526001602090815260408083206001600160a01b038616845290915281205482811015610f155760405162461bcd60e51b815260206004820152602560248201527f45524332303a2064656372656173656420616c6c6f77616e63652062656c6f77604482015264207a65726f60d81b6064820152608401610478565b610f2433856106b88685611efa565b5060019392505050565b6005546001600160a01b03163314610f585760405162461bcd60e51b815260040161047890611e37565b6007805460018101825560009182527fa66cc928b5edb82af9bd49922954155ab7b0942694bea4ce44661d9a8736c6880180546001600160a01b0319166001600160a01b03841690811790915560405190917fe80460ecb7ae145d6f464016042545ae7d1c76ea6cf8573349298ecb69e0065091a250565b60006105aa338484611585565b60078181548110610fed57600080fd5b6000918252602090912001546001600160a01b0316905081565b6002600654141561105a5760405162461bcd60e51b815260206004820152601f60248201527f5265656e7472616e637947756172643a207265656e7472616e742063616c6c006044820152606401610478565b6002600655816110ac5760405162461bcd60e51b815260206004820152601b60248201527f43616e2774206465706f7369742061207a65726f20616d6f756e7400000000006044820152606401610478565b60075481106110cd5760405162461bcd60e51b815260040161047890611e6c565b6000600782815481106110f057634e487b7160e01b600052603260045260246000fd5b60009182526020808320909101546001600160a01b0316808352600890915260409091205490915060ff16156111685760405162461bcd60e51b815260206004820152601e60248201527f53656c6563746564207772617070656443656c6f2069732062616e6e656400006044820152606401610478565b6000611172610afb565b6040516376c41bff60e01b8152600481018690529091506000906001600160a01b038416906376c41bff9060240160206040518083038186803b1580156111b857600080fd5b505afa1580156111cc573d6000803e3d6000fd5b505050506040513d601f19601f820116820180604052508101906111f09190611daf565b905060006111fe8383611938565b905060008361120e57508561125a565b61125761121b83856117dd565b61099f306001600160a01b03166318160ddd6040518163ffffffff1660e01b815260040160206040518083038186803b158015610c9d57600080fd5b90505b61126f6001600160a01b03861633308a611944565b6112793382611982565b505060016006555050505050565b6005546001600160a01b031633146112b15760405162461bcd60e51b815260040161047890611e37565b6001600160a01b0381166113165760405162461bcd60e51b815260206004820152602660248201527f4f776e61626c653a206e6577206f776e657220697320746865207a65726f206160448201526564647265737360d01b6064820152608401610478565b6005546040516001600160a01b038084169216907f8be0079c531659141344cd1fd0a4f28419497f9722a3daafe3b4186f6b6457e090600090a3600580546001600160a01b0319166001600160a01b0392909216919091179055565b6005546001600160a01b0316331461139c5760405162461bcd60e51b815260040161047890611e37565b60075481106113bd5760405162461bcd60e51b815260040161047890611e6c565b60006008600060078481548110610d4e57634e487b7160e01b600052603260045260246000fd5b6005546001600160a01b0316331461140e5760405162461bcd60e51b815260040161047890611e37565b600980546001600160a01b038381166001600160a01b0319831681179093556040519116919082907f82b35d45c357f923889a214ea247bfd97c31805b21391e139b94c750134b29bc90600090a35050565b6001600160a01b0383166114c25760405162461bcd60e51b8152602060048201526024808201527f45524332303a20617070726f76652066726f6d20746865207a65726f206164646044820152637265737360e01b6064820152608401610478565b6001600160a01b0382166115235760405162461bcd60e51b815260206004820152602260248201527f45524332303a20617070726f766520746f20746865207a65726f206164647265604482015261737360f01b6064820152608401610478565b6001600160a01b0383811660008181526001602090815260408083209487168084529482529182902085905590518481527f8c5be1e5ebec7d5bd14f71427d1e84f3dd0314c0f7b2291e5b200ac8c7c3b92591015b60405180910390a3505050565b6001600160a01b0383166115e95760405162461bcd60e51b815260206004820152602560248201527f45524332303a207472616e736665722066726f6d20746865207a65726f206164604482015264647265737360d81b6064820152608401610478565b6001600160a01b03821661164b5760405162461bcd60e51b815260206004820152602360248201527f45524332303a207472616e7366657220746f20746865207a65726f206164647260448201526265737360e81b6064820152608401610478565b6001600160a01b038316600090815260208190526040902054818110156116c35760405162461bcd60e51b815260206004820152602660248201527f45524332303a207472616e7366657220616d6f756e7420657863656564732062604482015265616c616e636560d01b6064820152608401610478565b6116cd8282611efa565b6001600160a01b038086166000908152602081905260408082209390935590851681529081208054849290611703908490611ea3565b92505081905550826001600160a01b0316846001600160a01b03167fddf252ad1be2c89b69c2b068fc378daa952ba7f163c4a11628f55a4df523b3ef8460405161174f91815260200190565b60405180910390a350505050565b60006106c38284611edb565b60006106c38284611ebb565b6040516001600160a01b0383166024820152604481018290526117d890849063a9059cbb60e01b906064015b60408051601f198184030181529190526020810180516001600160e01b03166001600160e01b031990931692909217909152611a61565b505050565b60006106c38284611efa565b6001600160a01b0382166118495760405162461bcd60e51b815260206004820152602160248201527f45524332303a206275726e2066726f6d20746865207a65726f206164647265736044820152607360f81b6064820152608401610478565b6001600160a01b038216600090815260208190526040902054818110156118bd5760405162461bcd60e51b815260206004820152602260248201527f45524332303a206275726e20616d6f756e7420657863656564732062616c616e604482015261636560f01b6064820152608401610478565b6118c78282611efa565b6001600160a01b038416600090815260208190526040812091909155600280548492906118f5908490611efa565b90915550506040518281526000906001600160a01b038516907fddf252ad1be2c89b69c2b068fc378daa952ba7f163c4a11628f55a4df523b3ef90602001611578565b60006106c38284611ea3565b6040516001600160a01b038085166024830152831660448201526064810182905261197c9085906323b872dd60e01b906084016117a1565b50505050565b6001600160a01b0382166119d85760405162461bcd60e51b815260206004820152601f60248201527f45524332303a206d696e7420746f20746865207a65726f2061646472657373006044820152606401610478565b80600260008282546119ea9190611ea3565b90915550506001600160a01b03821660009081526020819052604081208054839290611a17908490611ea3565b90915550506040518181526001600160a01b038316906000907fddf252ad1be2c89b69c2b068fc378daa952ba7f163c4a11628f55a4df523b3ef9060200160405180910390a35050565b6000611ab6826040518060400160405280602081526020017f5361666545524332303a206c6f772d6c6576656c2063616c6c206661696c6564815250856001600160a01b0316611b339092919063ffffffff16565b8051909150156117d85780806020019051810190611ad49190611d77565b6117d85760405162461bcd60e51b815260206004820152602a60248201527f5361666545524332303a204552433230206f7065726174696f6e20646964206e6044820152691bdd081cdd58d8d9595960b21b6064820152608401610478565b6060611b428484600085611b4a565b949350505050565b606082471015611bab5760405162461bcd60e51b815260206004820152602660248201527f416464726573733a20696e73756666696369656e742062616c616e636520666f6044820152651c8818d85b1b60d21b6064820152608401610478565b843b611bf95760405162461bcd60e51b815260206004820152601d60248201527f416464726573733a2063616c6c20746f206e6f6e2d636f6e74726163740000006044820152606401610478565b600080866001600160a01b03168587604051611c159190611de8565b60006040518083038185875af1925050503d8060008114611c52576040519150601f19603f3d011682016040523d82523d6000602084013e611c57565b606091505b5091509150611c67828286611c72565b979650505050505050565b60608315611c815750816106c3565b825115611c915782518084602001fd5b8160405162461bcd60e51b81526004016104789190611e04565b80356001600160a01b0381168114611cc257600080fd5b919050565b600060208284031215611cd8578081fd5b6106c382611cab565b60008060408385031215611cf3578081fd5b611cfc83611cab565b9150611d0a60208401611cab565b90509250929050565b600080600060608486031215611d27578081fd5b611d3084611cab565b9250611d3e60208501611cab565b9150604084013590509250925092565b60008060408385031215611d60578182fd5b611d6983611cab565b946020939093013593505050565b600060208284031215611d88578081fd5b815180151581146106c3578182fd5b600060208284031215611da8578081fd5b5035919050565b600060208284031215611dc0578081fd5b5051919050565b60008060408385031215611dd9578182fd5b50508035926020909101359150565b60008251611dfa818460208701611f11565b9190910192915050565b6020815260008251806020840152611e23816040850160208701611f11565b601f01601f19169190910160400192915050565b6020808252818101527f4f776e61626c653a2063616c6c6572206973206e6f7420746865206f776e6572604082015260600190565b6020808252601c908201527f7772617070656443656c6f496478206f7574206f6620626f756e647300000000604082015260600190565b60008219821115611eb657611eb6611f8d565b500190565b600082611ed657634e487b7160e01b81526012600452602481fd5b500490565b6000816000190483118215151615611ef557611ef5611f8d565b500290565b600082821015611f0c57611f0c611f8d565b500390565b60005b83811015611f2c578181015183820152602001611f14565b8381111561197c5750506000910152565b600181811c90821680611f5157607f821691505b60208210811415610c4a57634e487b7160e01b600052602260045260246000fd5b6000600019821415611f8657611f86611f8d565b5060010190565b634e487b7160e01b600052601160045260246000fdfea26469706673582212202fb944ea26883d6651482930ac771ce7bc8e515a1de2840e1b5d46cf1381022264736f6c63430008040033",
  "immutableReferences": {},
  "source": "//SPDX-License-Identifier: MIT\npragma solidity ^0.8.4;\n\nimport \"@openzeppelin/contracts/access/Ownable.sol\";\nimport \"@openzeppelin/contracts/security/ReentrancyGuard.sol\";\nimport \"@openzeppelin/contracts/utils/math/SafeMath.sol\";\nimport \"@openzeppelin/contracts/token/ERC20/ERC20.sol\";\nimport \"@openzeppelin/contracts/token/ERC20/utils/SafeERC20.sol\";\nimport \"./interfaces/IWrappedCelo.sol\";\n\ncontract RewardsCELO is ERC20, Ownable, IWrappedCelo, ReentrancyGuard {\n  using SafeMath for uint256;\n  using SafeERC20 for IWrappedCelo;\n\n  // Maximum fee of 1%\n  uint256 constant public MIN_FEE_DIVISOR = 100;\n\n  /// @dev list of wrappedCelo addresses.\n  IWrappedCelo[] public wrappedCelos;\n  /// @dev map of wrappedCelo address to ban status.\n  mapping (address => bool) public bans;\n  /// @dev recipient of contract fees.\n  address public feeTo;\n  /// @dev divisor applied to withdrawals to generate fees.\n  uint256 public feeDivisor;\n\n  /// @dev emitted when a new WrappedCelo is added\n  /// @param wrappedCelo address of the added WrappedCelo\n  event WrappedCeloAdded(address indexed wrappedCelo);\n  /// @dev emitted when `feeTo` changes\n  /// @param previousFeeTo address of the previous `feeTo`\n  /// @param newFeeTo address of the new `feeTo`\n  event FeeToChanged(address indexed previousFeeTo, address indexed newFeeTo);\n  /// @dev emitted when `feeDivisor` changes\n  /// @param previousFeeDivisor address of the previous `feeDivisor`\n  /// @param newFeeDivisor address of the new `feeDivisor`\n  event FeeDivisorChanged(uint256 indexed previousFeeDivisor, uint256 indexed newFeeDivisor);\n\n  constructor() ERC20(\"RewardsCELO\", \"rCELO\") {}\n\n  /// @notice Adds support for another wrapped CELO token\n  /// @param wrappedCelo address of the new wrapped CELO token to support\n  function addWrappedCelo(address wrappedCelo) external onlyOwner {\n    wrappedCelos.push(IWrappedCelo(wrappedCelo));\n    emit WrappedCeloAdded(wrappedCelo);\n  }\n\n  /// @notice Deposits wrappedCelo to the contract in exchange for RewardsCELO (pCELO) tokens. \n  /// pCELO to mint is determined by the equivalence:\n  /// savingsToCELO(toDeposit) / nextTotalSupplyCELO = toMint / (this.totalSupply() + toMint)\n  /// and solving for `toMint`.\n  /// @param toDeposit amount of wrappedCelo to deposit\n  /// @param wrappedCeloIdx index of wrappedCelo that is supported by pCELO\n  function deposit(uint256 toDeposit, uint256 wrappedCeloIdx) external nonReentrant {\n    require(toDeposit > 0, \"Can't deposit a zero amount\");\n    require(wrappedCeloIdx < wrappedCelos.length, \"wrappedCeloIdx out of bounds\");\n    IWrappedCelo wrappedCelo = wrappedCelos[wrappedCeloIdx];\n    require(bans[address(wrappedCelo)] == false, \"Selected wrappedCelo is banned\");\n\n    uint256 totalSupplyCELO = getTotalSupplyCELO();\n\n    uint256 celoToAdd = wrappedCelo.savingsToCELO(toDeposit);\n    uint256 nextTotalSupplyCELO = totalSupplyCELO.add(celoToAdd);\n    uint256 toMint;\n    if (totalSupplyCELO == 0) {\n      toMint = toDeposit;\n    } else {\n      toMint = celoToAdd.mul(this.totalSupply()).div(nextTotalSupplyCELO.sub(celoToAdd));\n    }\n    wrappedCelo.safeTransferFrom(_msgSender(), address(this), toDeposit);\n    _mint(_msgSender(), toMint);\n  }\n\n  /// @notice Returns the total amount of CELO represented by all wrapped CELO tokens\n  function getTotalSupplyCELO() public view returns (uint256) {\n    uint256 totalSupplyCELO = 0;\n    for (uint256 i = 0; i < wrappedCelos.length; i++) {\n      IWrappedCelo wrappedCelo = wrappedCelos[i];\n      totalSupplyCELO += wrappedCelo.savingsToCELO(wrappedCelo.balanceOf(address(this)));\n    }\n    return totalSupplyCELO;\n  }\n\n  /// @notice Withdraws wrappedCelo from the contract by returning RewardsCELO (pCELO) tokens.\n  /// Every wrappedCelo token is proportionally withdrawn according to the toWithdraw:totalSupply ratio\n  /// @param toWithdraw amount of pCELO to withdraw with\n  function withdraw(uint256 toWithdraw) external nonReentrant {\n    require(toWithdraw > 0, \"Can't withdraw a zero amount\");\n    require(toWithdraw <= this.balanceOf(_msgSender()), \"Can't withdraw more than user balance\");\n\n    uint256 totalSupplyCELO = getTotalSupplyCELO();\n\n    for (uint256 i = 0; i < wrappedCelos.length; i++) {\n      IWrappedCelo wrappedCelo = wrappedCelos[i];\n      uint256 toReturn = wrappedCelo.balanceOf(address(this)).mul(toWithdraw).div(this.totalSupply());\n      uint256 fee = 0;\n      if (feeTo != address(0) && feeDivisor != 0) {\n        fee = toReturn.div(feeDivisor);\n        wrappedCelo.safeTransfer(feeTo, fee);\n      }\n      wrappedCelo.safeTransfer(_msgSender(), toReturn.sub(fee));\n      totalSupplyCELO = totalSupplyCELO.sub(wrappedCelo.savingsToCELO(toReturn));\n    }\n    _burn(_msgSender(), toWithdraw);\n  }\n\n  /// @notice Sets the address that receives fees from this contract\n  /// @param _feeTo address to receive fees from this contract\n  function setFeeTo(address _feeTo) external onlyOwner {\n    address previousFeeTo = feeTo;\n    feeTo = _feeTo;\n    emit FeeToChanged(previousFeeTo, feeTo);\n  }\n\n  /// @notice Sets the new fee rate\n  /// @param _feeDivisor fee divisor to apply to all withdrawals\n  function setFeeDivisor(uint256 _feeDivisor) external onlyOwner {\n    require(_feeDivisor >= MIN_FEE_DIVISOR, \"New fee rate is too high\");\n    uint256 previousFeeDivisor = feeDivisor;\n    feeDivisor = _feeDivisor;\n    emit FeeDivisorChanged(previousFeeDivisor, feeDivisor);\n  }\n\n  /// @notice Disables fees on this contract\n  function clearFeeDivisor() external onlyOwner {\n    uint256 previousFeeDivisor = feeDivisor;\n    feeDivisor = 0;\n    emit FeeDivisorChanged(previousFeeDivisor, feeDivisor);\n  }\n\n  /// @notice Bans a wrappedCelo from being deposited\n  /// @param wrappedCeloIdx index of the wrappedCelo to ban\n  function banWrappedCelo(uint256 wrappedCeloIdx) external onlyOwner {\n    require(wrappedCeloIdx < wrappedCelos.length, \"wrappedCeloIdx out of bounds\");\n    bans[address(wrappedCelos[wrappedCeloIdx])] = true;\n  }\n\n  /// @notice Unbans a wrappedCelo from being deposited\n  /// @param wrappedCeloIdx index of the wrappedCelo to unban\n  function unbanWrappedCelo(uint256 wrappedCeloIdx) external onlyOwner {\n    require(wrappedCeloIdx < wrappedCelos.length, \"wrappedCeloIdx out of bounds\");\n    bans[address(wrappedCelos[wrappedCeloIdx])] = false;\n  }\n\n  function celoToSavings(uint256 celoAmount) override external view returns (uint256) {\n    uint256 totalSupplyCELO = getTotalSupplyCELO();\n    return celoAmount.mul(this.totalSupply()).div(totalSupplyCELO);\n  }\n\n  function savingsToCELO(uint256 savingsAmount) override external view returns (uint256) {\n    uint256 totalSupplyCELO = getTotalSupplyCELO();\n    return savingsAmount.mul(totalSupplyCELO).div(this.totalSupply());\n  }\n} \n",
  "sourcePath": "/home/home/dotfiles/poofcelo/contracts/RewardsCELO.sol",
  "compiler": {
    "name": "solc",
    "version": "0.8.4+commit.c7e474f2.Emscripten.clang"
  },
  "schemaVersion": "3.4.1",
  "updatedAt": "2021-06-13T23:30:38.350Z",
  "networkType": "ethereum",
  "devdoc": {
    "events": {
      "FeeDivisorChanged(uint256,uint256)": {
        "details": "emitted when `feeDivisor` changes",
        "params": {
          "newFeeDivisor": "address of the new `feeDivisor`",
          "previousFeeDivisor": "address of the previous `feeDivisor`"
        }
      },
      "FeeToChanged(address,address)": {
        "details": "emitted when `feeTo` changes",
        "params": {
          "newFeeTo": "address of the new `feeTo`",
          "previousFeeTo": "address of the previous `feeTo`"
        }
      },
      "WrappedCeloAdded(address)": {
        "details": "emitted when a new WrappedCelo is added",
        "params": {
          "wrappedCelo": "address of the added WrappedCelo"
        }
      }
    },
    "kind": "dev",
    "methods": {
      "addWrappedCelo(address)": {
        "params": {
          "wrappedCelo": "address of the new wrapped CELO token to support"
        }
      },
      "allowance(address,address)": {
        "details": "See {IERC20-allowance}."
      },
      "approve(address,uint256)": {
        "details": "See {IERC20-approve}. Requirements: - `spender` cannot be the zero address."
      },
      "balanceOf(address)": {
        "details": "See {IERC20-balanceOf}."
      },
      "banWrappedCelo(uint256)": {
        "params": {
          "wrappedCeloIdx": "index of the wrappedCelo to ban"
        }
      },
      "celoToSavings(uint256)": {
        "params": {
          "celoAmount": "amount of CELO tokens."
        },
        "returns": {
          "_0": "amount of sCELO tokens."
        }
      },
      "decimals()": {
        "details": "Returns the number of decimals used to get its user representation. For example, if `decimals` equals `2`, a balance of `505` tokens should be displayed to a user as `5,05` (`505 / 10 ** 2`). Tokens usually opt for a value of 18, imitating the relationship between Ether and Wei. This is the value {ERC20} uses, unless this function is overridden; NOTE: This information is only used for _display_ purposes: it in no way affects any of the arithmetic of the contract, including {IERC20-balanceOf} and {IERC20-transfer}."
      },
      "decreaseAllowance(address,uint256)": {
        "details": "Atomically decreases the allowance granted to `spender` by the caller. This is an alternative to {approve} that can be used as a mitigation for problems described in {IERC20-approve}. Emits an {Approval} event indicating the updated allowance. Requirements: - `spender` cannot be the zero address. - `spender` must have allowance for the caller of at least `subtractedValue`."
      },
      "deposit(uint256,uint256)": {
        "params": {
          "toDeposit": "amount of wrappedCelo to deposit",
          "wrappedCeloIdx": "index of wrappedCelo that is supported by pCELO"
        }
      },
      "increaseAllowance(address,uint256)": {
        "details": "Atomically increases the allowance granted to `spender` by the caller. This is an alternative to {approve} that can be used as a mitigation for problems described in {IERC20-approve}. Emits an {Approval} event indicating the updated allowance. Requirements: - `spender` cannot be the zero address."
      },
      "name()": {
        "details": "Returns the name of the token."
      },
      "owner()": {
        "details": "Returns the address of the current owner."
      },
      "renounceOwnership()": {
        "details": "Leaves the contract without owner. It will not be possible to call `onlyOwner` functions anymore. Can only be called by the current owner. NOTE: Renouncing ownership will leave the contract without an owner, thereby removing any functionality that is only available to the owner."
      },
      "savingsToCELO(uint256)": {
        "params": {
          "savingsAmount": "amount of sCELO tokens."
        },
        "returns": {
          "_0": "amount of CELO tokens."
        }
      },
      "setFeeDivisor(uint256)": {
        "params": {
          "_feeDivisor": "fee divisor to apply to all withdrawals"
        }
      },
      "setFeeTo(address)": {
        "params": {
          "_feeTo": "address to receive fees from this contract"
        }
      },
      "symbol()": {
        "details": "Returns the symbol of the token, usually a shorter version of the name."
      },
      "totalSupply()": {
        "details": "See {IERC20-totalSupply}."
      },
      "transfer(address,uint256)": {
        "details": "See {IERC20-transfer}. Requirements: - `recipient` cannot be the zero address. - the caller must have a balance of at least `amount`."
      },
      "transferFrom(address,address,uint256)": {
        "details": "See {IERC20-transferFrom}. Emits an {Approval} event indicating the updated allowance. This is not required by the EIP. See the note at the beginning of {ERC20}. Requirements: - `sender` and `recipient` cannot be the zero address. - `sender` must have a balance of at least `amount`. - the caller must have allowance for ``sender``'s tokens of at least `amount`."
      },
      "transferOwnership(address)": {
        "details": "Transfers ownership of the contract to a new account (`newOwner`). Can only be called by the current owner."
      },
      "unbanWrappedCelo(uint256)": {
        "params": {
          "wrappedCeloIdx": "index of the wrappedCelo to unban"
        }
      },
      "withdraw(uint256)": {
        "params": {
          "toWithdraw": "amount of pCELO to withdraw with"
        }
      }
    },
    "stateVariables": {
      "bans": {
        "details": "map of wrappedCelo address to ban status."
      },
      "feeDivisor": {
        "details": "divisor applied to withdrawals to generate fees."
      },
      "feeTo": {
        "details": "recipient of contract fees."
      },
      "wrappedCelos": {
        "details": "list of wrappedCelo addresses."
      }
    },
    "version": 1
  },
  "userdoc": {
    "kind": "user",
    "methods": {
      "addWrappedCelo(address)": {
        "notice": "Adds support for another wrapped CELO token"
      },
      "banWrappedCelo(uint256)": {
        "notice": "Bans a wrappedCelo from being deposited"
      },
      "celoToSavings(uint256)": {
        "notice": "Returns amount of SavingsCELO tokens that can be received for depositing celoAmount CELO tokens."
      },
      "clearFeeDivisor()": {
        "notice": "Disables fees on this contract"
      },
      "deposit(uint256,uint256)": {
        "notice": "Deposits wrappedCelo to the contract in exchange for RewardsCELO (pCELO) tokens.  pCELO to mint is determined by the equivalence: savingsToCELO(toDeposit) / nextTotalSupplyCELO = toMint / (this.totalSupply() + toMint) and solving for `toMint`."
      },
      "getTotalSupplyCELO()": {
        "notice": "Returns the total amount of CELO represented by all wrapped CELO tokens"
      },
      "savingsToCELO(uint256)": {
        "notice": "Returns amount of CELO that can be claimed for savingsAmount SavingsCELO tokens."
      },
      "setFeeDivisor(uint256)": {
        "notice": "Sets the new fee rate"
      },
      "setFeeTo(address)": {
        "notice": "Sets the address that receives fees from this contract"
      },
      "unbanWrappedCelo(uint256)": {
        "notice": "Unbans a wrappedCelo from being deposited"
      },
      "withdraw(uint256)": {
        "notice": "Withdraws wrappedCelo from the contract by returning RewardsCELO (pCELO) tokens. Every wrappedCelo token is proportionally withdrawn according to the toWithdraw:totalSupply ratio"
      }
    },
    "version": 1
  }
}