{
  "contractName": "TokenAllocator",
  "abi": [
    {
      "inputs": [
        {
          "internalType": "uint256",
          "name": "startTimestamp_",
          "type": "uint256"
        },
        {
          "internalType": "uint256",
          "name": "endTimestamp_",
          "type": "uint256"
        },
        {
          "internalType": "uint256",
          "name": "amount_",
          "type": "uint256"
        },
        {
          "internalType": "contract IERC20",
          "name": "token_",
          "type": "address"
        },
        {
          "internalType": "address",
          "name": "beneficiary_",
          "type": "address"
        }
      ],
      "stateMutability": "nonpayable",
      "type": "constructor"
    },
    {
      "inputs": [],
      "name": "amount",
      "outputs": [
        {
          "internalType": "uint256",
          "name": "",
          "type": "uint256"
        }
      ],
      "stateMutability": "view",
      "type": "function"
    },
    {
      "inputs": [],
      "name": "amountClaimed",
      "outputs": [
        {
          "internalType": "uint256",
          "name": "",
          "type": "uint256"
        }
      ],
      "stateMutability": "view",
      "type": "function"
    },
    {
      "inputs": [],
      "name": "beneficiary",
      "outputs": [
        {
          "internalType": "address",
          "name": "",
          "type": "address"
        }
      ],
      "stateMutability": "view",
      "type": "function"
    },
    {
      "inputs": [],
      "name": "endTimestamp",
      "outputs": [
        {
          "internalType": "uint256",
          "name": "",
          "type": "uint256"
        }
      ],
      "stateMutability": "view",
      "type": "function"
    },
    {
      "inputs": [
        {
          "internalType": "uint256",
          "name": "fromTimestamp",
          "type": "uint256"
        }
      ],
      "name": "getCumulativeTokens",
      "outputs": [
        {
          "internalType": "uint256",
          "name": "",
          "type": "uint256"
        }
      ],
      "stateMutability": "view",
      "type": "function"
    },
    {
      "inputs": [],
      "name": "startTimestamp",
      "outputs": [
        {
          "internalType": "uint256",
          "name": "",
          "type": "uint256"
        }
      ],
      "stateMutability": "view",
      "type": "function"
    },
    {
      "inputs": [],
      "name": "token",
      "outputs": [
        {
          "internalType": "contract IERC20",
          "name": "",
          "type": "address"
        }
      ],
      "stateMutability": "view",
      "type": "function"
    },
    {
      "inputs": [],
      "name": "claim",
      "outputs": [],
      "stateMutability": "nonpayable",
      "type": "function"
    },
    {
      "inputs": [],
      "name": "getClaimable",
      "outputs": [
        {
          "internalType": "uint256",
          "name": "",
          "type": "uint256"
        }
      ],
      "stateMutability": "view",
      "type": "function"
    },
    {
      "inputs": [],
      "name": "blockTimestamp",
      "outputs": [
        {
          "internalType": "uint256",
          "name": "",
          "type": "uint256"
        }
      ],
      "stateMutability": "view",
      "type": "function"
    }
  ],
  "bytecode": "0x61012060405234801561001157600080fd5b50604051610add380380610add83398101604081905261003091610152565b608085905260a084905260c08390526040516370a0823160e01b815230600482015283906001600160a01b038416906370a082319060240160206040518083038186803b15801561008057600080fd5b505afa158015610094573d6000803e3d6000fd5b505050506040513d601f19601f820116820180604052508101906100b8919061013a565b146101175760405162461bcd60e51b815260206004820152602560248201527f496e636f72726563742062616c616e636520666f7220746f6b656e20616c6c6f60448201526431b0ba37b960d91b606482015260840160405180910390fd5b6001600160601b0319606092831b811660e052911b1661010052506101c0915050565b60006020828403121561014b578081fd5b5051919050565b600080600080600060a08688031215610169578081fd5b8551945060208601519350604086015192506060860151610189816101a8565b608087015190925061019a816101a8565b809150509295509295909350565b6001600160a01b03811681146101bd57600080fd5b50565b60805160a05160c05160e05160601c6101005160601c6108956102486000396000818160ce01526103460152600081816101a5015261032401526000818161013e0152818161022201526102cb015260008181610117015281816101fa015261027b015260008181610176015281816101cb0152818161024d015261029c01526108956000f3fe608060405234801561001057600080fd5b506004361061009e5760003560e01c8063ad6b5d0411610066578063ad6b5d0414610160578063adb6183214610169578063e6fd48bc14610171578063ee28b74414610198578063fc0c546a146101a05761009e565b806319702da8146100a357806338af3eed146100c95780634e71d92d14610108578063a85adeab14610112578063aa8c217c14610139575b600080fd5b6100b66100b136600461072c565b6101c7565b6040519081526020015b60405180910390f35b6100f07f000000000000000000000000000000000000000000000000000000000000000081565b6040516001600160a01b0390911681526020016100c0565b610110610300565b005b6100b67f000000000000000000000000000000000000000000000000000000000000000081565b6100b67f000000000000000000000000000000000000000000000000000000000000000081565b6100b660005481565b6100b661037f565b6100b67f000000000000000000000000000000000000000000000000000000000000000081565b6100b6610384565b6100f07f000000000000000000000000000000000000000000000000000000000000000081565b60007f000000000000000000000000000000000000000000000000000000000000000082116101f8575060006102fb565b7f0000000000000000000000000000000000000000000000000000000000000000821061024657507f00000000000000000000000000000000000000000000000000000000000000006102fb565b60006102727f000000000000000000000000000000000000000000000000000000000000000084610802565b905060006102c07f00000000000000000000000000000000000000000000000000000000000000007f000000000000000000000000000000000000000000000000000000000000000061042f565b90506102f6816102f07f000000000000000000000000000000000000000000000000000000000000000085610442565b9061044e565b925050505b919050565b600061030a610384565b905080610317575061037d565b61036b6001600160a01b037f0000000000000000000000000000000000000000000000000000000000000000167f00000000000000000000000000000000000000000000000000000000000000008361045a565b60005461037890826104b1565b600055505b565b425b90565b60008061038f61037f565b60405163032e05b560e31b81526004810182905290915060009030906319702da89060240160206040518083038186803b1580156103cc57600080fd5b505afa1580156103e0573d6000803e3d6000fd5b505050506040513d601f19601f820116820180604052508101906104049190610744565b9050600054811161041a57600092505050610381565b60005461042890829061042f565b9250505090565b600061043b8284610802565b9392505050565b600061043b82846107e3565b600061043b82846107c3565b604080516001600160a01b038416602482015260448082018490528251808303909101815260649091019091526020810180516001600160e01b031663a9059cbb60e01b1790526104ac9084906104bd565b505050565b600061043b82846107ab565b6000610512826040518060400160405280602081526020017f5361666545524332303a206c6f772d6c6576656c2063616c6c206661696c6564815250856001600160a01b03166105949092919063ffffffff16565b8051909150156104ac5780806020019051810190610530919061070c565b6104ac5760405162461bcd60e51b815260206004820152602a60248201527f5361666545524332303a204552433230206f7065726174696f6e20646964206e6044820152691bdd081cdd58d8d9595960b21b60648201526084015b60405180910390fd5b60606105a384846000856105ab565b949350505050565b60608247101561060c5760405162461bcd60e51b815260206004820152602660248201527f416464726573733a20696e73756666696369656e742062616c616e636520666f6044820152651c8818d85b1b60d21b606482015260840161058b565b843b61065a5760405162461bcd60e51b815260206004820152601d60248201527f416464726573733a2063616c6c20746f206e6f6e2d636f6e7472616374000000604482015260640161058b565b600080866001600160a01b03168587604051610676919061075c565b60006040518083038185875af1925050503d80600081146106b3576040519150601f19603f3d011682016040523d82523d6000602084013e6106b8565b606091505b50915091506106c88282866106d3565b979650505050505050565b606083156106e257508161043b565b8251156106f25782518084602001fd5b8160405162461bcd60e51b815260040161058b9190610778565b60006020828403121561071d578081fd5b8151801515811461043b578182fd5b60006020828403121561073d578081fd5b5035919050565b600060208284031215610755578081fd5b5051919050565b6000825161076e818460208701610819565b9190910192915050565b6000602082528251806020840152610797816040850160208701610819565b601f01601f19169190910160400192915050565b600082198211156107be576107be610849565b500190565b6000826107de57634e487b7160e01b81526012600452602481fd5b500490565b60008160001904831182151516156107fd576107fd610849565b500290565b60008282101561081457610814610849565b500390565b60005b8381101561083457818101518382015260200161081c565b83811115610843576000848401525b50505050565b634e487b7160e01b600052601160045260246000fdfea26469706673582212209015b8c6e9e01b26f616e9869e3dbbd61ee38ab07ad3ab90fa0c22b2f5a53cef64736f6c63430008030033",
  "immutableReferences": {
    "86": [
      {
        "length": 32,
        "start": 374
      },
      {
        "length": 32,
        "start": 459
      },
      {
        "length": 32,
        "start": 589
      },
      {
        "length": 32,
        "start": 668
      }
    ],
    "89": [
      {
        "length": 32,
        "start": 279
      },
      {
        "length": 32,
        "start": 506
      },
      {
        "length": 32,
        "start": 635
      }
    ],
    "92": [
      {
        "length": 32,
        "start": 318
      },
      {
        "length": 32,
        "start": 546
      },
      {
        "length": 32,
        "start": 715
      }
    ],
    "355": [
      {
        "length": 32,
        "start": 421
      },
      {
        "length": 32,
        "start": 804
      }
    ],
    "357": [
      {
        "length": 32,
        "start": 206
      },
      {
        "length": 32,
        "start": 838
      }
    ]
  },
  "source": "// SPDX-License-Identifier: MIT\n\npragma solidity ^0.8.3;\n\nimport \"@openzeppelin/contracts/token/ERC20/IERC20.sol\";\nimport \"@openzeppelin/contracts/token/ERC20/utils/SafeERC20.sol\";\nimport \"@openzeppelin/contracts/utils/math/SafeMath.sol\";\nimport \"./LinearReleaseSchedule.sol\";\n\n/**\n * A token allocator that allocates on a linear release schedule for exactly one beneficiary\n */\ncontract TokenAllocator is LinearReleaseSchedule {\n  using SafeMath for uint256;\n  using SafeERC20 for IERC20;\n\n  IERC20 public immutable token;\n\n  address public immutable beneficiary;\n\n  uint256 public amountClaimed;\n\n  // @param startTimestamp_ When allocator begins\n  // @param endTimestamp_ When allocator ends\n  // @param amount_ How much to allocate\n  // @param token_ The token to allocate\n  // @param beneficiary_ The receiver of the allocated tokens\n  constructor (\n    uint256 startTimestamp_,\n    uint256 endTimestamp_,\n    uint256 amount_,\n    IERC20 token_,\n    address beneficiary_\n  ) LinearReleaseSchedule(startTimestamp_, endTimestamp_, amount_) {\n    require(token_.balanceOf(address(this)) == amount_, \"Incorrect balance for token allocator\");\n    token = token_;\n    beneficiary = beneficiary_;\n  }\n\n  // @dev Transfers claimable tokens to the beneficiary\n  function claim() external {\n    uint256 claimable = getClaimable();\n    if (claimable == 0) {\n      return;\n    }\n    token.safeTransfer(beneficiary, claimable);\n    amountClaimed = amountClaimed.add(claimable);\n  }\n\n  // @dev Number of tokens available to be claimed\n  function getClaimable() public view returns (uint256) {\n    uint256 currentTimestamp = blockTimestamp();\n    uint256 released = this.getCumulativeTokens(currentTimestamp);\n    if (released <= amountClaimed) {\n      return 0;\n    }\n    return released.sub(amountClaimed);\n  }\n\n  function blockTimestamp() public view virtual returns (uint256) {\n    return block.timestamp;\n  }\n}\n",
  "sourcePath": "/private/tmp/poof-deploy/poof-token/contracts/TokenAllocator.sol",
  "compiler": {
    "name": "solc",
    "version": "0.8.3+commit.8d00100c.Emscripten.clang"
  },
  "schemaVersion": "3.2.4",
  "updatedAt": "2021-06-29T20:20:41.518Z",
  "devdoc": {
    "kind": "dev",
    "methods": {},
    "version": 1
  },
  "userdoc": {
    "kind": "user",
    "methods": {
      "amount()": {
        "notice": "The total amount to release"
      },
      "endTimestamp()": {
        "notice": "Release schedule end time"
      },
      "startTimestamp()": {
        "notice": "Release schedule start time"
      }
    },
    "notice": "A token allocator that allocates on a linear release schedule for exactly one beneficiary",
    "version": 1
  }
}