{
  "contractName": "TornadoProxy",
  "abi": [
    {
      "inputs": [
        {
          "internalType": "address",
          "name": "_tornadoTrees",
          "type": "address"
        },
        {
          "internalType": "address",
          "name": "_governance",
          "type": "address"
        },
        {
          "components": [
            {
              "internalType": "contract ITornadoInstance",
              "name": "addr",
              "type": "address"
            },
            {
              "components": [
                {
                  "internalType": "contract IERC20",
                  "name": "token",
                  "type": "address"
                },
                {
                  "internalType": "enum TornadoProxy.InstanceState",
                  "name": "state",
                  "type": "uint8"
                }
              ],
              "internalType": "struct TornadoProxy.Instance",
              "name": "instance",
              "type": "tuple"
            }
          ],
          "internalType": "struct TornadoProxy.Tornado[]",
          "name": "_instances",
          "type": "tuple[]"
        }
      ],
      "stateMutability": "nonpayable",
      "type": "constructor"
    },
    {
      "anonymous": false,
      "inputs": [
        {
          "indexed": true,
          "internalType": "address",
          "name": "sender",
          "type": "address"
        },
        {
          "indexed": false,
          "internalType": "bytes",
          "name": "encryptedNote",
          "type": "bytes"
        }
      ],
      "name": "EncryptedNote",
      "type": "event"
    },
    {
      "anonymous": false,
      "inputs": [
        {
          "indexed": true,
          "internalType": "contract ITornadoInstance",
          "name": "instance",
          "type": "address"
        },
        {
          "indexed": false,
          "internalType": "enum TornadoProxy.InstanceState",
          "name": "state",
          "type": "uint8"
        }
      ],
      "name": "InstanceStateUpdated",
      "type": "event"
    },
    {
      "anonymous": false,
      "inputs": [
        {
          "indexed": false,
          "internalType": "contract ITornadoTrees",
          "name": "addr",
          "type": "address"
        }
      ],
      "name": "TornadoTreesUpdated",
      "type": "event"
    },
    {
      "inputs": [],
      "name": "governance",
      "outputs": [
        {
          "internalType": "address",
          "name": "",
          "type": "address"
        }
      ],
      "stateMutability": "view",
      "type": "function"
    },
    {
      "inputs": [
        {
          "internalType": "contract ITornadoInstance",
          "name": "",
          "type": "address"
        }
      ],
      "name": "instances",
      "outputs": [
        {
          "internalType": "contract IERC20",
          "name": "token",
          "type": "address"
        },
        {
          "internalType": "enum TornadoProxy.InstanceState",
          "name": "state",
          "type": "uint8"
        }
      ],
      "stateMutability": "view",
      "type": "function"
    },
    {
      "inputs": [],
      "name": "tornadoTrees",
      "outputs": [
        {
          "internalType": "contract ITornadoTrees",
          "name": "",
          "type": "address"
        }
      ],
      "stateMutability": "view",
      "type": "function"
    },
    {
      "inputs": [
        {
          "internalType": "contract ITornadoInstance",
          "name": "_tornado",
          "type": "address"
        },
        {
          "internalType": "bytes32",
          "name": "_commitment",
          "type": "bytes32"
        },
        {
          "internalType": "bytes",
          "name": "_encryptedNote",
          "type": "bytes"
        }
      ],
      "name": "deposit",
      "outputs": [],
      "stateMutability": "payable",
      "type": "function"
    },
    {
      "inputs": [
        {
          "internalType": "contract ITornadoInstance",
          "name": "_tornado",
          "type": "address"
        },
        {
          "internalType": "bytes",
          "name": "_proof",
          "type": "bytes"
        },
        {
          "internalType": "bytes32",
          "name": "_root",
          "type": "bytes32"
        },
        {
          "internalType": "bytes32",
          "name": "_nullifierHash",
          "type": "bytes32"
        },
        {
          "internalType": "address payable",
          "name": "_recipient",
          "type": "address"
        },
        {
          "internalType": "address payable",
          "name": "_relayer",
          "type": "address"
        },
        {
          "internalType": "uint256",
          "name": "_fee",
          "type": "uint256"
        },
        {
          "internalType": "uint256",
          "name": "_refund",
          "type": "uint256"
        }
      ],
      "name": "withdraw",
      "outputs": [],
      "stateMutability": "payable",
      "type": "function"
    },
    {
      "inputs": [
        {
          "internalType": "bytes[]",
          "name": "_encryptedNotes",
          "type": "bytes[]"
        }
      ],
      "name": "backupNotes",
      "outputs": [],
      "stateMutability": "nonpayable",
      "type": "function"
    },
    {
      "inputs": [
        {
          "components": [
            {
              "internalType": "contract ITornadoInstance",
              "name": "addr",
              "type": "address"
            },
            {
              "components": [
                {
                  "internalType": "contract IERC20",
                  "name": "token",
                  "type": "address"
                },
                {
                  "internalType": "enum TornadoProxy.InstanceState",
                  "name": "state",
                  "type": "uint8"
                }
              ],
              "internalType": "struct TornadoProxy.Instance",
              "name": "instance",
              "type": "tuple"
            }
          ],
          "internalType": "struct TornadoProxy.Tornado",
          "name": "_tornado",
          "type": "tuple"
        }
      ],
      "name": "updateInstance",
      "outputs": [],
      "stateMutability": "nonpayable",
      "type": "function"
    },
    {
      "inputs": [
        {
          "internalType": "contract ITornadoTrees",
          "name": "_tornadoTrees",
          "type": "address"
        }
      ],
      "name": "setTornadoTreesContract",
      "outputs": [],
      "stateMutability": "nonpayable",
      "type": "function"
    },
    {
      "inputs": [
        {
          "internalType": "contract IERC20",
          "name": "_token",
          "type": "address"
        },
        {
          "internalType": "address payable",
          "name": "_to",
          "type": "address"
        },
        {
          "internalType": "uint256",
          "name": "_amount",
          "type": "uint256"
        }
      ],
      "name": "rescueTokens",
      "outputs": [],
      "stateMutability": "nonpayable",
      "type": "function"
    }
  ],
  "bytecode": "0x60a06040523480156200001157600080fd5b5060405162002137380380620021378339810160408190526200003491620007ba565b600080546001600160a01b0319166001600160a01b038516178155606083901b6001600160601b0319166080525b8151811015620000ba57620000a58282815181106200009157634e487b7160e01b600052603260045260246000fd5b6020026020010151620000c460201b60201c565b80620000b18162000a2e565b91505062000062565b5050505062000a85565b60208082015182516001600160a01b03908116600090815260018452604090208251815492166001600160a01b031983168117825593830151929390929183916001600160a81b031990911617600160a01b8360028111156200013757634e487b7160e01b600052602160045260246000fd5b0217905550905050600081600001516001600160a01b031663fc0c546a6040518163ffffffff1660e01b815260040160206040518083038186803b1580156200017f57600080fd5b505afa15801562000194573d6000803e3d6000fd5b505050506040513d601f19601f82011682018060405250810190620001ba91906200079b565b90508160200151600001516001600160a01b0316816001600160a01b0316146200021d5760405162461bcd60e51b815260206004820152600f60248201526e24b731b7b93932b1ba103a37b5b2b760891b60448201526064015b60405180910390fd5b8151604051636eb1769f60e11b81523060048201526001600160a01b03918216602482015260009183169063dd62ed3e9060440160206040518083038186803b1580156200026a57600080fd5b505afa1580156200027f573d6000803e3d6000fd5b505050506040513d601f19601f82011682018060405250810190620002a5919062000933565b905060008360200151602001516002811115620002d257634e487b7160e01b600052602160045260246000fd5b14158015620002df575080155b156200031657620003108360000151600019846001600160a01b0316620003d260201b620009f2179092919060201c565b6200037e565b600083602001516020015160028111156200034157634e487b7160e01b600052602160045260246000fd5b1480156200034e57508015155b156200037e576200037e83600001516000846001600160a01b0316620003d260201b620009f2179092919060201c565b82600001516001600160a01b03167f02826f62d88a4d9f1978eb9c06f8663f642d032908e65a915d5898f3585421c0846020015160200151604051620003c591906200096a565b60405180910390a2505050565b801580620004605750604051636eb1769f60e11b81523060048201526001600160a01b03838116602483015284169063dd62ed3e9060440160206040518083038186803b1580156200042357600080fd5b505afa15801562000438573d6000803e3d6000fd5b505050506040513d601f19601f820116820180604052508101906200045e919062000933565b155b620004d45760405162461bcd60e51b815260206004820152603660248201527f5361666545524332303a20617070726f76652066726f6d206e6f6e2d7a65726f60448201527f20746f206e6f6e2d7a65726f20616c6c6f77616e636500000000000000000000606482015260840162000214565b604080516001600160a01b038416602482015260448082018490528251808303909101815260649091019091526020810180516001600160e01b0390811663095ea7b360e01b179091526200052c9185916200053116565b505050565b60006200058d826040518060400160405280602081526020017f5361666545524332303a206c6f772d6c6576656c2063616c6c206661696c6564815250856001600160a01b03166200060f60201b62000b49179092919060201c565b8051909150156200052c5780806020019051810190620005ae919062000911565b6200052c5760405162461bcd60e51b815260206004820152602a60248201527f5361666545524332303a204552433230206f7065726174696f6e20646964206e6044820152691bdd081cdd58d8d9595960b21b606482015260840162000214565b60606200062084846000856200062a565b90505b9392505050565b6060824710156200068d5760405162461bcd60e51b815260206004820152602660248201527f416464726573733a20696e73756666696369656e742062616c616e636520666f6044820152651c8818d85b1b60d21b606482015260840162000214565b843b620006dd5760405162461bcd60e51b815260206004820152601d60248201527f416464726573733a2063616c6c20746f206e6f6e2d636f6e7472616374000000604482015260640162000214565b600080866001600160a01b03168587604051620006fb91906200094c565b60006040518083038185875af1925050503d80600081146200073a576040519150601f19603f3d011682016040523d82523d6000602084013e6200073f565b606091505b509092509050620007528282866200075d565b979650505050505050565b606083156200076e57508162000623565b8251156200077f5782518084602001fd5b8160405162461bcd60e51b815260040162000214919062000993565b600060208284031215620007ad578081fd5b8151620006238162000a6c565b60008060006060808587031215620007d0578283fd5b8451620007dd8162000a6c565b80945050602080860151620007f28162000a6c565b604087810151919550906001600160401b038082111562000811578586fd5b818901915089601f83011262000825578586fd5b8151818111156200083a576200083a62000a56565b6200084a858260051b01620009c8565b8181528581019250838601878302850187018d101562000868578889fd5b8894505b82851015620008ff57808d03888112156200088557898afd5b6200089087620009c8565b82516200089d8162000a6c565b8152601f198201881315620008b0578a8bfd5b620008bb88620009c8565b915088830151620008cc8162000a6c565b82528288015160038110620008df578b8cfd5b828a0152808901919091528452600194909401939286019287016200086c565b50809750505050505050509250925092565b60006020828403121562000923578081fd5b8151801515811462000623578182fd5b60006020828403121562000945578081fd5b5051919050565b6000825162000960818460208701620009fb565b9190910192915050565b60208101600383106200098d57634e487b7160e01b600052602160045260246000fd5b91905290565b6000602082528251806020840152620009b4816040850160208701620009fb565b601f01601f19169190910160400192915050565b604051601f8201601f191681016001600160401b0381118282101715620009f357620009f362000a56565b604052919050565b60005b8381101562000a18578181015183820152602001620009fe565b8381111562000a28576000848401525b50505050565b600060001982141562000a4f57634e487b7160e01b81526011600452602481fd5b5060010190565b634e487b7160e01b600052604160045260246000fd5b6001600160a01b038116811462000a8257600080fd5b50565b60805160601c61167e62000ab960003960008181610163015281816104cb015281816107c00152610961015261167e6000f3fe6080604052600436106100865760003560e01c80635aa6e675116100595780635aa6e675146101515780636485ba2a14610185578063b438689f146101a5578063cea9d26f146101b8578063e2658c9c146101d857610086565b8063032bb4431461008b57806313d98d13146100e45780633cb837fd146100f957806341613ab014610131575b600080fd5b34801561009757600080fd5b506100cd6100a6366004611222565b6001602052600090815260409020546001600160a01b03811690600160a01b900460ff1682565b6040516100db9291906114d6565b60405180910390f35b6100f76100f236600461123e565b6101f8565b005b34801561010557600080fd5b50600054610119906001600160a01b031681565b6040516001600160a01b0390911681526020016100db565b34801561013d57600080fd5b506100f761014c366004611339565b6104c0565b34801561015d57600080fd5b506101197f000000000000000000000000000000000000000000000000000000000000000081565b34801561019157600080fd5b506100f76101a0366004611152565b610522565b6100f76101b3366004611298565b6105ae565b3480156101c457600080fd5b506100f76101d33660046111e2565b6107b5565b3480156101e457600080fd5b506100f76101f3366004611222565b610956565b6001600160a01b0384811660009081526001602090815260408083208151808301909252805494851682529293909291830190600160a01b900460ff16600281111561025457634e487b7160e01b600052602160045260246000fd5b600281111561027357634e487b7160e01b600052602160045260246000fd5b905250905060008160200151600281111561029e57634e487b7160e01b600052602160045260246000fd5b14156102f15760405162461bcd60e51b815260206004820152601d60248201527f54686520696e7374616e6365206973206e6f7420737570706f7274656400000060448201526064015b60405180910390fd5b61037a3330876001600160a01b0316638bca6d166040518163ffffffff1660e01b815260040160206040518083038186803b15801561032f57600080fd5b505afa158015610343573d6000803e3d6000fd5b505050506040513d601f19601f8201168201806040525081019061036791906113cd565b84516001600160a01b0316929190610b62565b6040516338a65cff60e21b81526001600160a01b0386169063e29973fc906103aa9087908790879060040161144d565b600060405180830381600087803b1580156103c457600080fd5b505af11580156103d8573d6000803e3d6000fd5b50600292506103e5915050565b8160200151600281111561040957634e487b7160e01b600052602160045260246000fd5b14156104765760005460405163c6758d6b60e01b81526001600160a01b038781166004830152602482018790529091169063c6758d6b90604401600060405180830381600087803b15801561045d57600080fd5b505af1158015610471573d6000803e3d6000fd5b505050505b336001600160a01b03167ffa28df43db3553771f7209dcef046f3bdfea15870ab625dcda30ac58b82b400884846040516104b1929190611470565b60405180910390a25050505050565b336001600160a01b037f000000000000000000000000000000000000000000000000000000000000000016146105085760405162461bcd60e51b81526004016102e890611534565b61051f61051a36839003830183611350565b610ba0565b50565b60005b818110156105a957337ffa28df43db3553771f7209dcef046f3bdfea15870ab625dcda30ac58b82b400884848481811061056f57634e487b7160e01b600052603260045260246000fd5b9050602002810190610581919061155c565b60405161058f929190611470565b60405180910390a2806105a18161160c565b915050610525565b505050565b6001600160a01b0389811660009081526001602090815260408083208151808301909252805494851682529293909291830190600160a01b900460ff16600281111561060a57634e487b7160e01b600052602160045260246000fd5b600281111561062957634e487b7160e01b600052602160045260246000fd5b905250905060008160200151600281111561065457634e487b7160e01b600052602160045260246000fd5b14156106a25760405162461bcd60e51b815260206004820152601d60248201527f54686520696e7374616e6365206973206e6f7420737570706f7274656400000060448201526064016102e8565b6040516310d056db60e11b81526001600160a01b038b16906321a0adb69034906106de908d908d908d908d908d908d908d908d90600401611484565b6000604051808303818588803b1580156106f757600080fd5b505af115801561070b573d6000803e3d6000fd5b506002935061071992505050565b8160200151600281111561073d57634e487b7160e01b600052602160045260246000fd5b14156107a957600054604051620d70c960e51b81526001600160a01b038c8116600483015260248201899052909116906301ae192090604401600060405180830381600087803b15801561079057600080fd5b505af11580156107a4573d6000803e3d6000fd5b505050505b50505050505050505050565b336001600160a01b037f000000000000000000000000000000000000000000000000000000000000000016146107fd5760405162461bcd60e51b81526004016102e890611534565b6001600160a01b0382166108615760405162461bcd60e51b815260206004820152602560248201527f43616e206e6f742072657363756520746f6b656e7320746f207a65726f206164604482015264647265737360d81b60648201526084016102e8565b6040516370a0823160e01b81523060048201526000906001600160a01b038516906370a082319060240160206040518083038186803b1580156108a357600080fd5b505afa1580156108b7573d6000803e3d6000fd5b505050506040513d601f19601f820116820180604052508101906108db91906113cd565b905060006108e98284610e72565b90506000811161093b5760405162461bcd60e51b815260206004820152601e60248201527f544f524e3a20747279696e6720746f2073656e6420302062616c616e6365000060448201526064016102e8565b61094f6001600160a01b0386168583610e8c565b5050505050565b336001600160a01b037f0000000000000000000000000000000000000000000000000000000000000000161461099e5760405162461bcd60e51b81526004016102e890611534565b600080546001600160a01b0319166001600160a01b0383169081179091556040519081527fd5ef75672982cb39cc849450302ce426d1655271003cae8a66cb533c12f86ecc9060200160405180910390a150565b801580610a7b5750604051636eb1769f60e11b81523060048201526001600160a01b03838116602483015284169063dd62ed3e9060440160206040518083038186803b158015610a4157600080fd5b505afa158015610a55573d6000803e3d6000fd5b505050506040513d601f19601f82011682018060405250810190610a7991906113cd565b155b610ae65760405162461bcd60e51b815260206004820152603660248201527f5361666545524332303a20617070726f76652066726f6d206e6f6e2d7a65726f60448201527520746f206e6f6e2d7a65726f20616c6c6f77616e636560501b60648201526084016102e8565b6040516001600160a01b0383166024820152604481018290526105a990849063095ea7b360e01b906064015b60408051601f198184030181529190526020810180516001600160e01b03166001600160e01b031990931692909217909152610ebc565b6060610b588484600085610f8e565b90505b9392505050565b6040516001600160a01b0380851660248301528316604482015260648101829052610b9a9085906323b872dd60e01b90608401610b12565b50505050565b60208082015182516001600160a01b03908116600090815260018452604090208251815492166001600160a01b031983168117825593830151929390929183916001600160a81b031990911617600160a01b836002811115610c1257634e487b7160e01b600052602160045260246000fd5b0217905550905050600081600001516001600160a01b031663fc0c546a6040518163ffffffff1660e01b815260040160206040518083038186803b158015610c5957600080fd5b505afa158015610c6d573d6000803e3d6000fd5b505050506040513d601f19601f82011682018060405250810190610c919190611136565b90508160200151600001516001600160a01b0316816001600160a01b031614610cee5760405162461bcd60e51b815260206004820152600f60248201526e24b731b7b93932b1ba103a37b5b2b760891b60448201526064016102e8565b8151604051636eb1769f60e11b81523060048201526001600160a01b03918216602482015260009183169063dd62ed3e9060440160206040518083038186803b158015610d3a57600080fd5b505afa158015610d4e573d6000803e3d6000fd5b505050506040513d601f19601f82011682018060405250810190610d7291906113cd565b905060008360200151602001516002811115610d9e57634e487b7160e01b600052602160045260246000fd5b14158015610daa575080155b15610dcd578251610dc8906001600160a01b038416906000196109f2565b610e20565b60008360200151602001516002811115610df757634e487b7160e01b600052602160045260246000fd5b148015610e0357508015155b15610e20578251610e20906001600160a01b0384169060006109f2565b82600001516001600160a01b03167f02826f62d88a4d9f1978eb9c06f8663f642d032908e65a915d5898f3585421c0846020015160200151604051610e6591906114f3565b60405180910390a2505050565b6000818310610e815781610e83565b825b90505b92915050565b6040516001600160a01b0383166024820152604481018290526105a990849063a9059cbb60e01b90606401610b12565b6000610f11826040518060400160405280602081526020017f5361666545524332303a206c6f772d6c6576656c2063616c6c206661696c6564815250856001600160a01b0316610b499092919063ffffffff16565b8051909150156105a95780806020019051810190610f2f91906111c2565b6105a95760405162461bcd60e51b815260206004820152602a60248201527f5361666545524332303a204552433230206f7065726174696f6e20646964206e6044820152691bdd081cdd58d8d9595960b21b60648201526084016102e8565b606082471015610fef5760405162461bcd60e51b815260206004820152602660248201527f416464726573733a20696e73756666696369656e742062616c616e636520666f6044820152651c8818d85b1b60d21b60648201526084016102e8565b843b61103d5760405162461bcd60e51b815260206004820152601d60248201527f416464726573733a2063616c6c20746f206e6f6e2d636f6e747261637400000060448201526064016102e8565b600080866001600160a01b031685876040516110599190611431565b60006040518083038185875af1925050503d8060008114611096576040519150601f19603f3d011682016040523d82523d6000602084013e61109b565b606091505b50915091506110ab8282866110b6565b979650505050505050565b606083156110c5575081610b5b565b8251156110d55782518084602001fd5b8160405162461bcd60e51b81526004016102e89190611501565b60008083601f840112611100578182fd5b50813567ffffffffffffffff811115611117578182fd5b60208301915083602082850101111561112f57600080fd5b9250929050565b600060208284031215611147578081fd5b8151610b5b81611633565b60008060208385031215611164578081fd5b823567ffffffffffffffff8082111561117b578283fd5b818501915085601f83011261118e578283fd5b81358181111561119c578384fd5b8660208260051b85010111156111b0578384fd5b60209290920196919550909350505050565b6000602082840312156111d3578081fd5b81518015158114610b5b578182fd5b6000806000606084860312156111f6578081fd5b833561120181611633565b9250602084013561121181611633565b929592945050506040919091013590565b600060208284031215611233578081fd5b8135610b5b81611633565b60008060008060608587031215611253578081fd5b843561125e81611633565b935060208501359250604085013567ffffffffffffffff811115611280578182fd5b61128c878288016110ef565b95989497509550505050565b60008060008060008060008060006101008a8c0312156112b6578485fd5b89356112c181611633565b985060208a013567ffffffffffffffff8111156112dc578586fd5b6112e88c828d016110ef565b90995097505060408a0135955060608a0135945060808a013561130a81611633565b935060a08a013561131a81611633565b8093505060c08a0135915060e08a013590509295985092959850929598565b60006060828403121561134a578081fd5b50919050565b60008183036060811215611362578182fd5b61136c60406115a1565b833561137781611633565b81526040601f198301121561138a578283fd5b61139460406115a1565b915060208401356113a481611633565b82526040840135600381106113b7578384fd5b6020838101919091528101919091529392505050565b6000602082840312156113de578081fd5b5051919050565b60008284528282602086013780602084860101526020601f19601f85011685010190509392505050565b6003811061142d57634e487b7160e01b600052602160045260246000fd5b9052565b600082516114438184602087016115e0565b9190910192915050565b6000848252604060208301526114676040830184866113e5565b95945050505050565b600060208252610b586020830184866113e5565b600060e0825261149860e083018a8c6113e5565b60208301989098525060408101959095526001600160a01b03938416606086015291909216608084015260a083019190915260c09091015292915050565b6001600160a01b038316815260408101610b5b602083018461140f565b60208101610e86828461140f565b60006020825282518060208401526115208160408501602087016115e0565b601f01601f19169190910160400192915050565b6020808252600e908201526d139bdd08185d5d1a1bdc9a5e995960921b604082015260600190565b6000808335601e19843603018112611572578283fd5b83018035915067ffffffffffffffff82111561158c578283fd5b60200191503681900382131561112f57600080fd5b604051601f8201601f1916810167ffffffffffffffff811182821017156115d857634e487b7160e01b600052604160045260246000fd5b604052919050565b60005b838110156115fb5781810151838201526020016115e3565b83811115610b9a5750506000910152565b600060001982141561162c57634e487b7160e01b81526011600452602481fd5b5060010190565b6001600160a01b038116811461051f57600080fdfea264697066735822122095d02ff0b8199ac0bd81b616fddef6d8f36d37b62c2c8e8c1430e881ba17cf4864736f6c63430008030033",
  "immutableReferences": {
    "1686": [
      {
        "length": 32,
        "start": 355
      },
      {
        "length": 32,
        "start": 1227
      },
      {
        "length": 32,
        "start": 1984
      },
      {
        "length": 32,
        "start": 2401
      }
    ]
  },
  "source": "// SPDX-License-Identifier: MIT\n\npragma solidity ^0.8.0;\nimport \"@openzeppelin/contracts/token/ERC20/IERC20.sol\";\nimport \"@openzeppelin/contracts/token/ERC20/utils/SafeERC20.sol\";\nimport \"@openzeppelin/contracts/utils/math/Math.sol\";\nimport \"./interfaces/ITornadoInstance.sol\";\nimport \"./interfaces/ITornadoTrees.sol\";\n\ncontract TornadoProxy {\n  using SafeERC20 for IERC20;\n\n  event EncryptedNote(address indexed sender, bytes encryptedNote);\n  event InstanceStateUpdated(ITornadoInstance indexed instance, InstanceState state);\n  event TornadoTreesUpdated(ITornadoTrees addr);\n\n  enum InstanceState { DISABLED, ENABLED, MINEABLE }\n\n  struct Instance {\n    IERC20 token;\n    InstanceState state;\n  }\n\n  struct Tornado {\n    ITornadoInstance addr;\n    Instance instance;\n  }\n\n  ITornadoTrees public tornadoTrees;\n  address public immutable governance;\n  mapping(ITornadoInstance => Instance) public instances;\n\n  modifier onlyGovernance() {\n    require(msg.sender == governance, \"Not authorized\");\n    _;\n  }\n\n  constructor(\n    address _tornadoTrees,\n    address _governance, \n    Tornado[] memory _instances\n  ) {\n    tornadoTrees = ITornadoTrees(_tornadoTrees);\n    governance = _governance;\n\n    for (uint256 i = 0; i < _instances.length; i++) {\n      _updateInstance(_instances[i]);\n    }\n  }\n\n  function deposit(\n    ITornadoInstance _tornado,\n    bytes32 _commitment,\n    bytes calldata _encryptedNote\n  ) external payable {\n    Instance memory instance = instances[_tornado];\n    require(instance.state != InstanceState.DISABLED, \"The instance is not supported\");\n\n    instance.token.safeTransferFrom(msg.sender, address(this), _tornado.denomination());\n    _tornado.deposit(_commitment, _encryptedNote);\n\n    if (instance.state == InstanceState.MINEABLE) {\n      tornadoTrees.registerDeposit(address(_tornado), _commitment);\n    }\n    emit EncryptedNote(msg.sender, _encryptedNote);\n  }\n\n  function withdraw(\n    ITornadoInstance _tornado,\n    bytes calldata _proof,\n    bytes32 _root,\n    bytes32 _nullifierHash,\n    address payable _recipient,\n    address payable _relayer,\n    uint256 _fee,\n    uint256 _refund\n  ) external payable {\n    Instance memory instance = instances[_tornado];\n    require(instance.state != InstanceState.DISABLED, \"The instance is not supported\");\n\n    _tornado.withdraw{ value: msg.value }(_proof, _root, _nullifierHash, _recipient, _relayer, _fee, _refund);\n    if (instance.state == InstanceState.MINEABLE) {\n      tornadoTrees.registerWithdrawal(address(_tornado), _nullifierHash);\n    }\n  }\n\n  function backupNotes(bytes[] calldata _encryptedNotes) external {\n    for (uint256 i = 0; i < _encryptedNotes.length; i++) {\n      emit EncryptedNote(msg.sender, _encryptedNotes[i]);\n    }\n  }\n\n  function updateInstance(Tornado calldata _tornado) external onlyGovernance {\n    _updateInstance(_tornado);\n  }\n\n  function setTornadoTreesContract(ITornadoTrees _tornadoTrees) external onlyGovernance {\n    tornadoTrees = _tornadoTrees;\n    emit TornadoTreesUpdated(_tornadoTrees);\n  }\n\n  /// @dev Method to claim junk and accidentally sent tokens\n  function rescueTokens(\n    IERC20 _token,\n    address payable _to,\n    uint256 _amount\n  ) external onlyGovernance {\n    require(_to != address(0), \"Can not rescue tokens to zero address\");\n\n    uint256 totalBalance = _token.balanceOf(address(this));\n    uint256 balance = Math.min(totalBalance, _amount);\n    require(balance > 0, \"TORN: trying to send 0 balance\");\n    _token.safeTransfer(_to, balance);\n  }\n\n  function _updateInstance(Tornado memory _tornado) internal {\n    instances[_tornado.addr] = _tornado.instance;\n    IERC20 token = IERC20(_tornado.addr.token());\n    require(token == _tornado.instance.token, \"Incorrect token\");\n    uint256 allowance = token.allowance(address(this), address(_tornado.addr));\n\n    if (_tornado.instance.state != InstanceState.DISABLED && allowance == 0) {\n      token.safeApprove(address(_tornado.addr), type(uint256).max);\n    } else if (_tornado.instance.state == InstanceState.DISABLED && allowance != 0) {\n      token.safeApprove(address(_tornado.addr), 0);\n    }\n    emit InstanceStateUpdated(_tornado.addr, _tornado.instance.state);\n  }\n}\n",
  "sourcePath": "/private/tmp/poof-deploy/poof-anonymity-mining/contracts/TornadoProxy.sol",
  "compiler": {
    "name": "solc",
    "version": "0.8.3+commit.8d00100c.Emscripten.clang"
  },
  "schemaVersion": "3.2.2",
  "updatedAt": "2021-07-20T16:06:10.452Z",
  "devdoc": {
    "kind": "dev",
    "methods": {
      "rescueTokens(address,address,uint256)": {
        "details": "Method to claim junk and accidentally sent tokens"
      }
    },
    "version": 1
  },
  "userdoc": {
    "kind": "user",
    "methods": {},
    "version": 1
  }
}